:020000040800F2
:10000000B00800206D020008D92F0008912C0008CC
:10001000D52F000865100008FD340008000000001E
:10002000000000000000000000000000F1300008A7
:100030006910000800000000ED300008F5300008ED
:10004000870200088702000887020008870200086C
:10005000870200088702000887020008870200085C
:10006000870200088702000887020008870200084C
:10007000870200088702000887020008870200083C
:10008000870200088702000887020008870200082C
:10009000870200088702000887020008870200081C
:1000A000870200088702000887020008870200080C
:1000B000BD31000887020008870200088702000897
:1000C00087020008870200088702000887020008EC
:1000D00087020008F1340008870200088702000840
:1000E00087020008870200088702000887020008CC
:1000F00087020008870200088702000887020008BC
:1001000087020008870200088702000887020008AB
:10011000870200088702000887020008870200089B
:10012000870200088702000887020008870200088B
:10013000870200088702000887020008870200087B
:10014000870200088702000887020008870200086B
:10015000870200088702000887020008870200085B
:10016000870200088702000887020008870200084B
:1001700087020008870200088702000800000000CC
:10018000870200088702000800F002F800F05FF81C
:1001900014A696E8000CB244B344DA4501D100F04D
:1001A00056F8BAE80F000FA696E83000A5EB040554
:1001B00004EB0607AAEB0704A7F101074FEA1515A0
:1001C0004FEA3414A4F10104AC4201D300F03FF82B
:1001D00013F0010F18BFFB1A43F0010300F001F800
:1001E000DBE71847BC330000DC330000103A24BFC3
:1001F00078C878C1FAD8520724BF30C830C144BF8C
:1002000004680C6070470000704700000023002461
:1002100000250026103A28BF78C1FBD8520728BF16
:1002200030C148BF0B607047642900F0F7800020A0
:1002300070471FB503F091F99DE8030000F0DAFC68
:1002400000F0DAF91FBD10B500F03FFA10BD00F064
:100250006FFA1146FFF7EDFF03F052F900F066FC6C
:1002600003B4FFF7F0FF03BC00F042FE09488047EB
:1002700009480047FEE7FEE7FEE7FEE7FEE7FEE788
:10028000FEE7FEE7FEE7FEE704480549054A064BA0
:1002900070470000A931000889010008B002002061
:1002A000B0080020B0040020B004002053EA020C83
:1002B00000F069802DE9F04B4FF00006002B1FBFC6
:1002C000B3FA83F503FA05F424FA05F65E4012BF8B
:1002D0001643B2FA82F502FA05F4C5F120051EBFF5
:1002E00022FA05FC44EA0C04203556EA044C4FEA95
:1002F000144418BF641C4FF000084FF000099042EE
:1003000071EB030C39D3002919BFB1FA81F701FA57
:1003100007F6B0FA80F700FA07F6C7F120071EBF0C
:1003200020FA07FC46EA0C062037B6FBF4FCA7EBE4
:100330000507103F07F01F0BCBF120062CFA06F63D
:100340000CFA0BFB44BFB3460026202FA4BF5E4629
:100350004FF0000B5BEA060C08BF4FF0010B19EBE6
:100360000B0948EB0608ABFB027C06FB02CC0BFB3F
:1003700003CCC01B71EB0C01C1E70B4602464146A2
:100380004846BDE8F08B13B5084318BF4FF0FF3067
:100390000146AFF30080BDE81C4070470FB404492C
:1003A00010B503AA029800F0F9F810BC5DF814FB30
:1003B0006C0000202DE9F0410E460446002020622A
:1003C0002046E168884730B3252805D0D4E90121CB
:1003D0009047206A401CF2E7E168204600278847E2
:1003E000050018D0A5F14100192802D820354FF496
:1003F00000673246294620462760FFF715FF40B1C7
:10040000012804D0F61D26F007060836D8E7361D69
:10041000D6E72846DAE7206ABDE8F0812DE9F04109
:100420000646002410687529314616A510D0AFF392
:100430000080002802DA404213A507E031688A07ED
:1004400001D512A502E0490704D511A5012401E058
:10045000AFF3008000210A2206F1240709E0B0FB77
:10046000F2FCB0FBF2F302FB1C003030785418466B
:10047000491C0028F3D123462A463046BDE8F04106
:1004800000F032B8000000002D0000002B0000003A
:10049000200000004FF0000200B513469446964637
:1004A000203922BFA0E80C50A0E80C50B1F1200187
:1004B000BFF4F7AF090728BFA0E80C5048BF0CC035
:1004C0005DF804EB890028BF40F8042B08BF704793
:1004D00048BF20F8022B11F0804F18BF00F8012B05
:1004E00070477047704770472DE9F0470D469946B1
:1004F0009246044600F124080168880604D5E069A4
:1005000021F01001216000E00120A84201DD471B1D
:1005100000E00027A1697A1902EB0900081AA0611E
:100520002078C00602D42046AFF30080002608E001
:10053000D4E901211AF806009047206A401C761C75
:1005400020624E45F4DB2078C0060AD52046AFF382
:10055000008006E0D4E9012130209047206A401C49
:100560002062381EA7F10107F4DC07E0D4E901217D
:1005700018F805009047206A401C2062281EA5F14B
:100580000105F3DC2046AFF300802078000602D599
:100590000220BDE8F0870120FBE70000074B70B5A3
:1005A0000D467B4400F011F80446284600F020F880
:1005B00010B14FF0FF3070BD204670BD992F000084
:1005C00001694A1C02610878704700B58FB0CDE917
:1005D00001310021059105497944CDE90310114607
:1005E0006846FFF7E7FE0FB000BD0000E5FFFFFF24
:1005F000007B00F08000704710B542485421FFF79F
:1006000049FF41485421FFF745FF40485421FFF777
:1006100041FF3F493B483C4A3F4B08603D490A6027
:100620003A491960531C0365481C10650120086590
:100630003B48344A39A1784400F0DAF920B9384807
:1006400078440A3800F07BFA37482F4A35A17844BD
:1006500000F0CEF920B9344878440A3800F06FFA37
:1006600032482A4A2FA1784400F0C2F920B92F4815
:1006700078440A3800F063FA40232248DC00002165
:10068000224600F092F920B125487844543800F011
:1006900056FA1D4822464023002100F086F920B179
:1006A00021487844543800F04AFA1848224610236A
:1006B000002100F07AF9002806D01C487844BDE8F3
:1006C0001040563800F03BBA10BD104870B5006DB0
:1006D00020F001040B4800F003FA0B4800F000FA88
:1006E0000A4800F0FDF909E0206D20F001052046E0
:1006F00000F0F6F9204600F040F82C46002CF3D12B
:1007000070BD0000180000206C000020C000002018
:1007100000000020040000200800002072000000FB
:100720003A2F000077000000262F0000122F000053
:10073000754600F03FFAAE4605006946534620F084
:100740000700854618B020B5FFF79EFDBDE82040A4
:100750004FF000064FF000074FF000084FF0000B7D
:10076000AC46ACE8C009ACE8C009ACE8C009ACE8EC
:10077000C00921F007018D46704770B50446051F7A
:1007800000F01CFA0068002C14BF446870BD002CF7
:1007900018BFAC423CBF20466468F8D301680A1811
:1007A000AA4218BF456003D12A680546114401607A
:1007B00028684119A1421CBF6C6070BD6168696006
:1007C00021680844286070BD2DE9F05F0546174692
:1007D0000C46C86820F4201040F48000C8608006F1
:1007E00002D5084600F043FBE06841F282014FF079
:1007F000FF3A0140022903D0204600F0D5FAB9E0C3
:1008000000F42041B1F5004F0FD1C00306D5616857
:10081000E06A884200D80846606006E02069E0622D
:100820006060606900F0BFF9A061A0680022EEB2CC
:1008300000280DDAE1688B050AD4C043A06041F4BA
:1008400090302260E0606068411C61600670AAE040
:10085000E0689146226040F40050E060206978BB77
:10086000606900F092F904F124054FF00108A8B185
:10087000A08910F4407F08D0E06900F0EAF9206117
:1008800018B1E06840F4006017E0C4F81C802561EE
:10089000E06820F4407040F480600EE0E06900F011
:1008A000D8F900282061F0D0E06840F4006010F42E
:1008B000407FE06002D140F48070E06020696060B9
:1008C000E06825696FF0010BC1051ED56168E06A1B
:1008D000884200D80846411B04D02246284600F032
:1008E0006DFAE8BB1FB1E562C4E9015959E0681C23
:1008F000E0626060E069401EA060E06840F4803023
:10090000E06030462E70BDE8F09F17B100F48032F1
:100910000AE06068411C61600670E0680A2E40F4DD
:100920008030E06006D00022E16A6068814203D92D
:100930000B4602E00122F7E70346B4F80CC05B1B4C
:100940005FEA4C5C04D4D4F81CC09C4500DD02B3C3
:10095000814200D80146002BA1EB0008E56200E0CF
:1009600008E0C4E9015907DD22461946284600F08F
:1009700025FA08B15046C6E7B8F1000F09D0A169C1
:10098000E5626560A1EB0800A061E06840F010003E
:10099000E06047B16168A069E562491B0844656091
:1009A000A0615846AFE73046ADE770B5C468A5070B
:1009B00013D0650211D4B2F5807F09D0B2F5007F63
:1009C00006D0B2F5806F08D1012300F1240106E0C2
:1009D0005D1E6FF07F46B54201D3012070BD0161FD
:1009E000C361416024F470611143C160002070BD97
:1009F0002DE9F0410C461646070047D0104600F09E
:100A00006FF82078611C61280AD0722802D07728FC
:100A10003CD102E00125002405E00225042402E087
:100A2000082448F2020511F8010B2B2806D0622891
:100A300009D011F8010C74280AD00BE045F0030529
:100A400044F00204EFE745F0040544F00104EAE74E
:100A500044F010043846214600F078F8411C15D0C7
:100A60000021316171604FF40071F560F1617061D6
:100A7000200704D530460222002100F019F9306D1C
:100A800040F0010030653046BDE8F0810020FBE712
:100A90002DE9F0410D460646104C206DC10704D0EB
:100AA000410804D020F00104F7E722460EE054206C
:100AB00000F0CFF807000ED0206D47F00101084389
:100AC000542120653846FFF7E5FC3A462946304672
:100AD000BDE8F0418CE70020D6E7000018000020B8
:100AE0002DE9F04704464FF0FF380026C568D4E9E9
:100AF0000497A80718D0204600F096F9384600F071
:100B00002FF8002800DA4646280502D54846FFF7A8
:100B100034FE4C212046FFF7BDFC206D20F0010083
:100B200020653046BDE8F0874046FBE710B5044637
:100B3000AFF300802046BDE81040FFF791BB10B531
:100B400000F0BCF9BDE8104000F0B2B90EB5CDE937
:100B5000000100F035FA029069460120ABBE0EBDDF
:100B600008B5694600900220ABBE08BD1FB58DE8F0
:100B7000070069460520ABBE04B010BD1FB58DE867
:100B80000F0069460620ABBEF6E708B5694600903F
:100B90000920ABBE08BD1CB5CDE9000169460A209D
:100BA000ABBE1CBD704708B5694600900C20ABBEBB
:100BB00008BD00000048704714010020004870473D
:100BC0001C010020704770477047704738B50446D5
:100BD0000A4600206946AFF30080002808BF38BDF0
:100BE00002460099204600F090F9012038BD01200E
:100BF00000F0DFB9F8B5AFF30080054600200C46E1
:100C00000C2000BF0646A819A0420DD932466946FD
:100C10000020AFF30080070008BF00F0CAF9009879
:100C2000A04218BF0546C419FFF7C8FF0560074674
:100C3000F01D20F007004619284600F060F9B44284
:100C400008BFF8BDA21B31463868BDE8F84000F087
:100C50005CB970B50646FFF7B1FF056806F10B00F9
:100C600020F00704B4429CBF002070BD2B466A6888
:100C7000BAB11068A04210D304F1080188423CBF09
:100C80005068586007D35168101941601168091BFA
:100C9000016058601460101D70BD13465268002A30
:100CA000E7D121462846FFF791FF0028DED170BD2D
:100CB0002DE9F041044616460D464769007B800742
:100CC0002ED03846FFF761FF50BB3EB3012E02D055
:100CD000022E25D104E0204600F031F905441DE044
:100CE0003846FFF760FFE168002841F01001E1603D
:100CF00005DA204600F058F80120BDE8F081C9036C
:100D00000BD56268E16A914200D81146A26911448C
:100D10002269891A814200DD08460544002D01DA66
:100D20000220EAE7E16A6068E268814206D2910344
:100D3000E06203D522F4003141F01002A6690027D9
:100D4000AE4213DCE16A814201D90B4600E0034662
:100D500003EB060C2369ACEB030CAC4506DD8142CA
:100D600001D98C4600E084469C4505D1A7602760E8
:100D700042F02000A5620DE0AD1BE669AE1B81428A
:100D8000A66000D90846C01A281A20605819606069
:100D900022F0200003490840E060002084F84870F9
:100DA000ABE70000BFCFD7FFC16821F4001141F0CD
:100DB0008001C16000218160016070472DE9F74F1B
:100DC00015460C464FF0FF3B3848D768D2F814A0C0
:100DD000074209D05046A969FFF7DDFE002819DB5C
:100DE0003248C0430740EF604FF000496FF00048C1
:100DF0004C4501D3464600E0264600993B46504606
:100E00003246FFF7B3FEA96920F00042B21A11443E
:100E1000A96128B12846FFF7C7FF5846BDE8FE8FF5
:100E2000A41BE5D10020F9E770B504460569C06A46
:100E30006168884200D80846E16821F42011E16029
:100E4000C90312D5A84208D02246411B2846FFF705
:100E5000B5FF10B14FF0FF3070BD0020E562C4E96E
:100E60000150E06820F48030E060002070BD10B5D3
:100E70000446C06820F02000E060A16AA0698842B2
:100E80000DD02046FFF7D0FFE06820F4405040F03E
:100E90001000E060A06AA0612069E062606044F236
:100EA0004001E0688843E06010BD000010000200CF
:100EB000002801D000F01CB87047000010B50146B2
:100EC00002A000F05DF8012010BD00005349475218
:100ED000545245443A2052656469726563743A20FD
:100EE00063616E2774206F70656E3A200000000009
:100EF00001491820ABBEFEE7260002007047002122
:100F00000160416070470C207047034640688C4682
:100F1000002818BF88423CBF03464068F8D31868D1
:100F20001844884207D00CF1030020F00700001D90
:100F3000411A521A0146081D0A60FFF71EBC10B57F
:100F40000146C268900703D0900607D5886A0AE078
:100F500000F05CF801210160881E10BD8B694868B3
:100F600018440B69C01A91F848301BB191F8491028
:100F7000401A10BD1103FCD50028FADD401E10BD3B
:100F800070B505460C460A2000E06D1C00F037F8ED
:100F900035B128780028F8D102E0641C00F02FF861
:100FA00014B120780028F8D1BDE870400A2000F084
:100FB00026B810B500F02EF8BDE81040FFF778BF56
:100FC00010B5431C02E010F8011B71B18107FAD182
:100FD0004FF0013202C88C1A8C4314EAC211F9D0C6
:100FE000C01A0A0603D0C01E10BDC01A10BD0A04E4
:100FF00001D0801E10BD0902FCD0401E10BD08B5F6
:1010000069468DF800000320ABBE08BD004870475C
:101010001401002010B5012805D0002103A0FFF71E
:10102000AFFF012010BD09A1F8E700005349475266
:10103000544D454D3A204F7574206F6620686561A8
:1010400070206D656D6F7279000000003A20486570
:101050006170206D656D6F727920636F727275704B
:1010600074656400FEE7000070470000EFF3108035
:1010700072B600BFFEE7000070B5866D044600F052
:101080002BF994F83510022928D105462068216CE7
:10109000026822F016020260426922F08002426178
:1010A00009B9A16C19B1016821F00801016001685A
:1010B00021F00101016000BF20680068C00715D061
:1010C00000F00AF9401B0628F6D3202060650320B3
:1010D00084F83500002184F8341070BD80206065EC
:1010E0000120002184F8341070BD00BFE06D3F2165
:1010F00001FA00F0B060012084F8350000200021E2
:1011000084F8341070BD000090F83510022909D120
:10111000052180F835100068016821F001010160A7
:101120000020704780214165012070472DE9F04F74
:1011300083B000F1200200F13E4741F600450092E5
:1011400007F1FF77C4F2020508224FEAB726A8424A
:1011500008BF072200254FF000084FF00009072EB6
:1011600038BF4FEAB72201920AE000BF09F1010936
:1011700008F10208B9F1100F05F1040500F0A28092
:101180000F68012202FA09FE17EA0E0AEED0D1F822
:1011900004C003220CF003077E1E02FA08F4012E9D
:1011A0006FEA040B12D88468CE6804EA0B0406FACE
:1011B00008F634438460446824EA0E06CCF3001435
:1011C00004FA09F42643466004E000BF032F01D16E
:1011D00003271EE0C6688C6806EA0B0604FA08F4CA
:1011E0002643022FC66014D16FF00302009E02EA6C
:1011F000590756F807C005F01C040F220B69A240DE
:101200002CEA0202A3401A43F251D1F804C00CF0B8
:101210000307026807FA08F302EA0B021A431CF4F8
:10122000403F0260A2D0002243F644030292C4F27F
:1012300002031A6843F6004442F480421A601A68B6
:10124000C4F2010402F480420292029A29F00302DD
:101250004FF6084C2244CFF6FF7C52F80C3005F0D4
:101260000C070F26BE40B343019E06FA07F73B4327
:1012700042F80C30A2684B6842EA0A0743F60C4C6D
:10128000DE0258BF22EA0A07A760C4F2010CDCF8AC
:1012900000209E0242EA0A0758BF22EA0A07CCF859
:1012A000007062689E0342EA0A0758BF22EA0A07F2
:1012B00067602268DB0342EA0A0758BF22EA0A078E
:1012C000276053E703B0BDE8F08F0000002A08BF95
:1012D000090481617047000040F2A820C2F20000BA
:1012E0000068704740F20C0040F2A821C2F20000F2
:1012F000C2F2000100780A681044086070470000DC
:1013000080B543F60040C4F20200016841F4007168
:101310000160016841F480610160016841F48071FD
:101320000160032000F086F80F2000F005F800F0BF
:1013300027F8002080BD000070B540F20C06C2F214
:10134000000640F214013278C2F200014FF47A73C1
:101350000968B3FBF2F20446B1FBF2F1084600F073
:101360005FFB0F2C4FF0010508D838B94FF0FF3064
:1013700021460022002500F031F87460284670BD37
:1013800082B0002043F640010190C4F202014A6895
:1013900042F480424A604A6802F480420192019A13
:1013A0000090086840F080500860086800F08050A5
:1013B0000090009802B07047002848BF704700F0C6
:1013C0001F01012202FA01F11C2202EAD0004EF2B2
:1013D0000012CEF2000281507047000010B54EF6A8
:1013E0000C5CCEF2000CDCF80030C3F3022E8EF061
:1013F0000704042C28BF0424BEF103034FF0FF3E72
:101400000EFA04F438BF0023A14399400EFA03F307
:101410009A43114300F00F0200F160430901043ABE
:1014200003F564436244002848BF02F10C031970BD
:1014300010BD00004EF60C51CEF200010A684FF6C6
:10144000FF031A4060F30A2242F0806040F0FD7012
:1014500008607047002804BF012070472DE9F04163
:1014600043F60808C4F202080446D8F8F8030D460B
:1014700000F00700884207D288F8F853D8F8F8033C
:1014800000F00700A84277D12068810717D54107EF
:1014900005D5D8F8001041F4E051C8F80010010754
:1014A00005D5D8F8001041F46041C8F80010D8F80C
:1014B0000010A26821F0F0011143C8F80010C00725
:1014C00040D1D8F8F80300F00700A84207D988F8FF
:1014D000F853D8F8F80300F00700A8424CD1206870
:1014E000410707D5D8F80010E26821F4E051114314
:1014F000C8F80010000708D5D8F80000216920F4CA
:10150000604040EAC100C8F8000000F07DF8D8F85B
:10151000001043F28052C1F30311C0F60002515C87
:1015200040F2140220FA01F140F21000C2F2000071
:101530000068C2F200021160FFF7FEFE0020BDE865
:10154000F08100BF6068811E022907D258F8081C8C
:1015500089015CBF0120BDE8F08111E0012807D1BD
:1015600058F8081C89035CBF0120BDE8F08107E042
:1015700058F8081C890703D40120BDE8F08100BF9A
:10158000D8F8001021F003010843C8F80000FFF765
:10159000A3FE064641F28837D8F80000616800F0E3
:1015A0000C00B0EB810F8CD0FFF796FE801BB84289
:1015B000F2D90320BDE8F08140F2140043F608019F
:1015C000C2F20000C4F202010068096843F29052BE
:1015D000C1F38221C0F60002515CC8407047000090
:1015E00040F2140043F60801C2F20000C4F2020106
:1015F0000068096843F29052C1F34231C0F600021C
:10160000515CC8407047000010B543F60404C4F2B2
:101610000204606800F00C0008280BD0042819BFF1
:1016200042F20040C0F2F40047F64000C0F27D10E4
:1016300010BD00BF206821682368490247F64001B9
:10164000C0F27D1100F03F02C3F388105CBF42F28C
:101650000041C0F2F401A1FB00010023FEF726FEC9
:1016600021680222C1F3014102EB4101B0FBF1F01C
:1016700010BD0000002804BF012070472DE9F04193
:1016800082B00446007843F60006C007C4F20206A2
:101690000CD0B06800F00C00042840F08180306865
:1016A000800303D56068002800F0688120788007F7
:1016B0001BD5B06810F00C0F09D0B06800F00C001A
:1016C000082840F087807068400200F1838030680D
:1016D000800703D5E068012840F050813068216917
:1016E00020F0F80040EAC10030602078000713D4F1
:1016F000207840072AD4A569002D00F03A81B0680F
:1017000000F00C00082840F0A580012D40F00E816B
:10171000012002B0BDE8F0816069002800F08280FD
:101720000020C4F247200121C0F8801EFFF7D4FD3D
:10173000054600BF706F8007DAD4FFF7CDFD401B70
:101740000228F7D9032002B0BDE8F081306C5FEACF
:10175000C0080AD400200190306C40F08050306402
:10176000306C00F080500190019847F20007C4F2FD
:1017700000073868C00547D4386840F48070386086
:10178000FFF7AAFD054600BF3868C0053CD4FFF747
:10179000A3FD401B0228F7D9032002B0BDE8F08169
:1017A000B06800F00C00082803D1706840023FF5D3
:1017B00076AF61683068B1F5803F07D0B1F5A02FF2
:1017C00040F09A8040F480203060306840F48030EF
:1017D00030609AE0E068002840F20000C4F2472040
:1017E0005CD001210160FFF777FD05463068800776
:1017F0003FF574AFFFF770FD401B0228F6D90320B8
:1018000002B0BDE8F08100BFA168306F012905D0AA
:10181000052955D140F004003067306F40F00100D9
:10182000306756E00020C4F247200021C0F8801E37
:10183000FFF752FD054600BF706F80077FF558AF78
:10184000FFF74AFD401B0228F6D9032002B0BDE88D
:10185000F08100BF0027C4F2472700203866FFF759
:101860003BFD022D05460DD13068800140F18A8094
:10187000FFF732FD401B02284FF00300F4D902B0FD
:10188000BDE8F0813068800173D5FFF725FD401B6E
:1018900002284FF00300F5D9F1E700BF00210160F5
:1018A000FFF71AFD054600BF306880077FF51DAFC2
:1018B000FFF712FD401B02284FF00300F4D9DEE7CA
:1018C00020F001003067306F002920F004003067FD
:1018D0007AD0FFF701FD054641F28837306F800767
:1018E00000F18480FFF7F8FC401BB842F6D90320D2
:1018F00002B0BDE8F08100BF20F480303060306875
:10190000002920F4802030607AD0FFF7E5FC0546FE
:10191000306880033FF5CAAEFFF7DEFC401B642849
:10192000F6D9032002B0BDE8F08100BF7068E1691C
:1019300000F480028A4221D1216A00F03F028A42EB
:101940001CD147F6C071626A0140B1EB821F15D10C
:10195000A16A4FF6FF73C903994300F44032A1F521
:1019600080318A420AD1E16A00F07060B0EB016F09
:1019700004D1002002B0BDE8F08100BF012002B018
:10198000BDE8F08104F11C052FCD084340EA821028
:10199000D9034FF6FF729143A1F5803140EA05600B
:1019A0000843706001203866FFF796FC044600BFCC
:1019B00030688001DDD4FFF78FFC001B02284FF058
:1019C0000300F5D95BE700BFFFF786FC054641F24F
:1019D000883700BF306F800708D5FFF77DFC401BBC
:1019E000B8424FF00300F5D949E700BFB8F1000F46
:1019F0003FF581AE306C20F0805030647BE600BF54
:101A0000FFF76AFC054600BF306880037FF54EAEE5
:101A1000FFF762FC401B64284FF00300F4D92EE767
:101A2000411E0020B0EB116F1CBF012070474EF229
:101A30001002CEF2000251604EF62351CEF20001A8
:101A4000F0230B7007219060116070477047000011
:101A50007047000090F83C20012A04BF0220704724
:101A6000B0B501F108053CCDD1E900CE23F47C539B
:101A700022F470521A432EF4F0431A432CF4E0433C
:101A80001A4324F4C0431A432A43C96922F480420A
:101A9000036811435964002180F83C100020B0BD58
:101AA00090F83C20012A4FF0020254D010B580F883
:101AB0003D200268D2F804E0D2F808C00C682EF08D
:101AC0007003234341F2FF74C4F20004A242536046
:101AD0000EDC40F2FF73C4F200039A4216DCB2F14E
:101AE000804F2BD040F20043C4F2000324E000BF3B
:101AF00040F2FF33C4F201039A4213DC41F60003C3
:101B0000C4F200039A4219D0002313E040F6000308
:101B1000C4F200039A4211D040F60043C4F200031D
:101B20000AE000BF44F20003C4F201039A4205D068
:101B300040F20043C4F201039A4204D149682CF0F8
:101B40008003194391600121002280F83D1080F844
:101B50003C20BDE81040104670470000002804BF3C
:101B60000120704710B5044690F83D0028B90020C8
:101B700084F83C00204600F01FF8022084F83D0065
:101B80002068211D01F020FB012084F8460084F824
:101B90003E0084F83F0084F8400084F8410084F857
:101BA000420084F8430084F8440084F8450084F837
:101BB0003D00002010BD000080B582B00068B0F18B
:101BC000804F15D00021C4F2010188420ED10020BF
:101BD000019043F64000C4F20200416841F0010167
:101BE0004160406800F001000190019802B080BDA2
:101BF0000020009043F64000C4F202000168002279
:101C000041F0010101600068002100F00100009036
:101C100000981C20FFF7E2FB1C2002B0BDE88040CA
:101C2000FFF7CABB90F83D1001291CBF0120704787
:101C3000022180F83D10006841F2FF71C4F20001FA
:101C400088420DDC40F2FF71C4F20001884215DCCD
:101C5000B0F1804F2AD040F20041C4F2000123E0ED
:101C600040F2FF31C4F20101884213DC41F6000169
:101C7000C4F20001884219D0002113E040F60001AF
:101C8000C4F20001884211D040F60041C4F20001C4
:101C90000AE000BF44F20001C4F20101884205D00D
:101CA00040F20041C4F20101884206D1816801F08E
:101CB0000701062904BF00207047016841F00101B7
:101CC000016000207047000090F83C20012A4FF08E
:101CD00002026CD080B580F83D20D0F800C04FF6ED
:101CE0007772DCF8083023EA0202CCF808200B688F
:101CF0004F2B29DC1F2B45DD202B46D0302B44D029
:101D0000402B40F0AF80D1F804E0C968DCF8203007
:101D1000DCF8202022F00102CCF82020DCF818208A
:101D200022F0F00242EA011123F00A0242EA0E0216
:101D3000CCF81810CCF82020DCF8081041F047014E
:101D400021F0300128E000BF6F2B33DDB3F5005FD9
:101D500074D0B3F5805F21D0702B40F08380D1E93F
:101D600001E3C968DCF8082043EA0E0322F47F424D
:101D700043EA01211143CCF80810DCF8081041F0C7
:101D8000770109E00BB1102B6CD1DCF8081021F0C1
:101D90007001194341F00701CCF80810002201211D
:101DA00080F83D10002180F83C10BDE880401046CE
:101DB000704700BF502B21D0602B53D1D1F804E0E5
:101DC000C968DCF8203023F01003CCF82030DCF8B0
:101DD0001830DCF8202023F4704322F0A00243EAFC
:101DE000013142EA0E12CCF81810CCF82020DCF8B1
:101DF000081041F0670121F01001CDE7D1F804E0AF
:101E0000C968DCF82030DCF8202022F00102CCF890
:101E10002020DCF8182022F0F00242EA011123F021
:101E20000A0242EA0E02CCF81810CCF82020DCF8A6
:101E3000081041F0570121F02001ADE7D1E901E39D
:101E4000C968DCF8082043EA0E0322F47F4243EA23
:101E500001211143CCF80810DCF8081041F480414E
:101E60009AE700BF01229AE77047000010B50168A9
:101E700004460869800744BFC8685FEA807039D4A7
:101E80000869400744BFC8685FEA40703ED40869EB
:101E9000000744BFC8685FEA007045D40869C006FF
:101EA00044BFC8685FEAC0604AD40869C0071CBF65
:101EB000C8685FEAC07051D10869000644BFC868AD
:101EC0005FEA006052D40869400644BFC8685FEA10
:101ED000406053D40869800646BFC8685FEA8060E6
:101EE00010BD6FF0200220460A61BDE81040FFF7E8
:101EF000AFBD00BF6FF00200086101202077886944
:101F0000800743D02046FFF7AFFF45E06FF00400A5
:101F1000086102202077886910F4407F40D0204675
:101F2000FFF7A2FF42E000BF6FF008000861042045
:101F30002077C86980073DD02046FFF795FF3FE036
:101F40006FF01000086108202077C86910F4407F06
:101F50003AD02046FFF788FF3CE000BF6FF0010059
:101F60000861204600F0ECFA2168A5E76FF08000D8
:101F700008612046FFF76AFD2168A4E76FF0400082
:101F80000861204600F0DEFA2168A3E7204600F051
:101F900063F9204600F0D2FA2168002020776FE72D
:101FA000204600F059F9204600F0C8FA21680020C8
:101FB00020776CE7204600F04FF9204600F0BEFA8B
:101FC00021680020207769E7204600F045F9204687
:101FD00000F0B4FA21680020207766E770B586B07B
:101FE00000680025B0F1804F0595CDE903550295B5
:101FF000019521D00021C4F2010188424FD1002077
:1020000043F630010090C4F202010A6842F0100267
:102010000A60096801F01001009100994FF42061F5
:1020200001910221CDE9021004900020C4F20200C7
:1020300000F580502EE000BF43F630000095C4F25A
:1020400002000168002441F0010101600168C4F24E
:10205000020401F001010091009900950168022637
:1020600041F002010160006801A900F00200009047
:10207000009820200190012005902046CDE90265BE
:102080000495FFF753F80820CDE9010604F58060B8
:10209000CDE903550121059101A9FFF747F806B0E5
:1020A00070BD000090F83C30012B04BF0220704747
:1020B0004FEAB202032A00F2C980F0B5DFE802F06D
:1020C000028A3264026840F20045136A42F4806476
:1020D00023F001031362136AD2F804E0D2F818C0A7
:1020E0008E6823F00203C4F20105AC4243EA060302
:1020F00005D1CE6823F00C0326F0040633430E68A6
:10210000AC4206D1D1E905472EF44075254345EA96
:10211000070E2CF073073743C2F804E09761496853
:10212000516389E0026840F20045136A42F480641A
:1021300023F480731362136AD2F804E0D2F81CC04F
:102140008E6823F40073C4F20105AC4243EA06230F
:1021500007D1CE6840F2FF47360223F44063BE4306
:1021600033430E68AC4206D1D1E905452EF4405701
:10217000254347EA051E2CF073073743C2F804E0F5
:10218000D7614968D16357E0026840F20047136A9B
:1021900042F4806623F480531362146A5368D2F8C1
:1021A0001CE00D68D1F808C0C4F20107BE4204D19A
:1021B0004E6923F4804343EA86132EF4E64747EA48
:1021C00005275360D761496824F4005444EA0C336E
:1021D000116431E0026840F20045136A42F4806401
:1021E00023F010031362136AD2F804E0D2F818C087
:1021F0008E6823F02003C4F20105AC4243EA0613C3
:1022000007D1CE686FF0400723F0C00307EA061637
:1022100033430E68AC4206D1D1E905452EF4406740
:10222000254347EA850E2CF4E64747EA0627C2F81D
:1022300004E097614968916300211362BDE8F040B2
:10224000002280F83C200846704700BF0121002290
:1022500080F83C200846704770470000002804BF03
:102260000120704710B5044690F83D0028B90020C1
:1022700084F83C00204600F01FF8022084F83D005E
:102280002068211D00F0A0FF012084F8460084F89A
:102290003E0084F83F0084F8400084F8410084F850
:1022A000420084F8430084F8440084F8450084F830
:1022B0003D00002010BD00007047000090F83C3049
:1022C000012B04BF022070474FEAB202032A00F23A
:1022D000FF802DE9F043DFE802F003B13F7F00BF4C
:1022E000036840F200461A6A43F4806522F0010256
:1022F0001A621C6A1A46D3F804C052F818EF8F68A5
:1023000024F00204C4F20106B54244EA070405D1F0
:10231000CF6824F00C0427F004073C430F68B54253
:1023200006D1D1E905582CF440762E4346EA080C34
:102330002EF073063743C3F804C09F614F680969E4
:102340005F631C629F6947F008079F619F6927F0E0
:1023500004079F61B1E000BF036840F200481A6AB9
:1023600043F4806522F480721A621C6A1A46D3F81C
:1023700004C052F81CEF8F6824F40074C4F2010802
:10238000454544EA072408D1CF6840F2FF463F02A2
:1023900024F4406427EA06063443D1F8009045450A
:1023A00006D1D1E905562CF440572E4347EA061CC6
:1023B0002EF0730747EA0907C3F804C0DF614F68CE
:1023C0000969DF631C62DF6947F00807DF61DF69C5
:1023D00027F00407DF6170E0036840F200451A6AE5
:1023E00043F4806722F480521A621A46D3F820C060
:1023F0005C6852F81C8FD1F800E08E68C4F20105C9
:10240000AF4204D14D6924F4804444EA85142CF48D
:10241000005747EA063728F4E64646EA0E265C608F
:10242000DE614E6809691E641F62DF6947F4006758
:10243000DF61DF6927F48067DF613DE0036840F218
:1024400000481A6A43F4806522F010021A621C6A7E
:102450001A46D3F804C052F818EF8F6824F020040D
:10246000C4F20108454544EA071407D1CF686FF06C
:10247000400624F0C00406EA07163443D1F8009061
:10248000454506D1D1E905562CF440672E4347EA6D
:10249000860C2EF4E64747EA0927C3F804C09F617B
:1024A0004F6809699F631C629F6947F400679F61D9
:1024B0009F6927F480679F610902136819431160BF
:1024C0000021BDE8F043002280F83C200846704718
:1024D0000121002280F83C2008467047002804BFF4
:1024E0000120704710B5044690F83D0028B900203F
:1024F00084F83C00204600F01FF8022084F83D00DC
:102500002068211D00F060FE012084F8460084F858
:102510003E0084F83F0084F8400084F8410084F8CD
:10252000420084F8430084F8440084F8450084F8AD
:102530003D00002010BD0000704700007047000003
:1025400070470000704700007047000070470000AF
:10255000B0B582B001680A68CC684B6902F02F05FB
:10256000202D04F0200505D125B102B0BDE8B04012
:1025700000F0CABE5FEA027C1EBF03F0010E04F445
:10258000907313EB0E0341D1036BD50618D5012BC5
:1025900016D114F0100313D0002201920A680192A0
:1025A0004A680192019A496949064BD4818DC28DCE
:1025B000C38D002B18BF914240F0F28102B0B0BD34
:1025C00013062DD514F080032AD090F83D20212A3F
:1025D000F4D18268B2F5805F03D10269002A00F06D
:1025E0006382026A531C036212784A60C28C013A09
:1025F0001304C284E2D1C86820F08000C860C868B3
:1026000040F04000C86002B0B0BD00BFD30718BFA3
:1026100014F4807340F0CE80530700F1D180D6E0EF
:102620005206CBD514F04002C8D0CA6822F040024E
:10263000CA60202180F83D1002B0BDE8B04000F033
:1026400025BB00BF826B11684B689DB2002DB5D0D1
:10265000818D8D42B2D2C385D269B2F5807F00F000
:10266000A180016851E8031F026821F4807142E8EB
:102670000313DBB1016851E8031F026821F4807184
:1026800042E8031393B1016851E8031F026821F483
:10269000807142E803134BB1016851E8031F0268DF
:1026A00021F4807142E80313002BDAD1016851E86C
:1026B000051F026821F0010142E80513BBB3016860
:1026C00051E8051F026821F0010142E8051373B3C8
:1026D000016851E8051F026821F0010142E8051375
:1026E0002BB3016851E8051F026821F0010142E89F
:1026F0000513002BDAD11AE0016851E8051F0268C2
:1027000021F0400142E80513DBB1016851E8051FE3
:10271000026821F0400142E8051393B1016851E8D5
:10272000051F026821F0400142E805134BB1016822
:1027300051E8051F026821F0400142E80513002B13
:10274000DAD1202180F83E1000210163016851E8B0
:10275000031F026821F0100142E80313DBB1016896
:1027600051E8031F026821F0100142E8031393B1FE
:10277000016851E8031F026821F0100142E80313C9
:102780004BB1016851E8031F026821F0100142E8D3
:102790000313002BDAD1816B04460846FEF76CFC6C
:1027A000A18D2046C28D891A89B202B0BDE8B04021
:1027B000FFF7CABE036C43F001030364530706D559
:1027C000BEF1000F03D0036C43F0020303649307D0
:1027D00006D5BEF1000F03D0036C43F0040303647D
:1027E000BCF1000F06D55EEA050303D0036C43F08D
:1027F00008030364036C002B3FF4E0AE920605D59A
:1028000025B1044600F080FD216820464969026C2C
:1028100001F0400102F00802891800F0B98000BF01
:10282000016851E8031F026821F4907142E8031324
:10283000BBB3016851E8031F026821F4907142E8BC
:10284000031373B3016851E8031F026821F4907108
:1028500042E803132BB3016851E8031F026821F417
:10286000907142E80313002BDAD11AE0016851E8B5
:10287000051F026821F0010142E80513DBB1016880
:1028800051E8051F026821F0010142E8051393B1E8
:10289000016851E8051F026821F0010142E80513B3
:1028A0004BB1016851E8051F026821F0010142E8BF
:1028B0000513002BDAD1016B012924D1016851E8FD
:1028C000031F026821F0100142E80313DBB1016825
:1028D00051E8031F026821F0100142E8031393B18D
:1028E000016851E8031F026821F0100142E8031358
:1028F0004BB1016851E8031F026821F0100142E862
:102900000313002BDAD1202180F83E10002101634F
:1029100001684969490640F1C180016851E8051F15
:10292000026821F0400142E80513DBB1016851E87B
:10293000051F026821F0400142E8051393B10168C8
:1029400051E8051F026821F0400142E805134BB130
:10295000016851E8051F026821F0400142E80513B3
:10296000002BDAD1816B002900F0988043F2FD2220
:10297000C0F60002044608460A65FEF7C5FB0028BB
:102980003FF41CAEA06B016D02B0BDE8B04008473B
:102990000446FFF7DBFD0020206402B0B0BD00BF9D
:1029A000891A00BF026852E8032F036822F490726C
:1029B00043E80325BDB3026852E8032F036822F4FD
:1029C000907243E8032575B3026852E8032F036849
:1029D00022F4907243E803252DB3026852E8032FD6
:1029E000036822F4907243E80325002DDAD11AE03F
:1029F000026852E8052F036822F0010243E805252A
:102A0000DDB1026852E8052F036822F0010243E8B5
:102A1000052595B1026852E8052F036822F00102EE
:102A200043E805254DB1026852E8052F036822F0FE
:102A3000010243E80525002DDAD1202280F83E204E
:102A400000220263026852E8032F036822F010029A
:102A500043E80325DDB1026852E8032F036822F042
:102A6000100243E8032595B1026852E8032F03687A
:102A700022F0100243E803254DB1026852E8032F0B
:102A8000036822F0100243E80325002DDAD189B251
:102A900002B0BDE8B040FFF757BD00BF02B0BDE8CF
:102AA000B040FFF753BD00BF026A32F8023B6FF33C
:102AB0005F234B60026299E5002804BF0120704744
:102AC00010B5044690F83D0028B9002084F83C0079
:102AD000204600F021F8242084F83D002068C168D9
:102AE00021F40051C160204600F08EFC206801698D
:102AF00021F490410161416921F02A014161C168DD
:102B000041F40051C16000202021206484F83D1070
:102B100084F83E1010BD000080B586B0006841F218
:102B20000002C4F2010200219042CDE90411CDE976
:102B3000021101912ED044F60041C4F200018842F6
:102B400058D1002043F630010090C4F202010A6916
:102B500042F400220A610A6902F400220092009AFB
:102B600000900A6842F001020A600968022201F03E
:102B7000010100910099CDE9022008200321059070
:102B8000002001910491C4F2020001A9FEF7CEFADF
:102B900006B080BD43F630000091C4F202004269E5
:102BA00042F010024261426902F010020092009A63
:102BB0000091026842F001020260006800F001002A
:102BC000009000984FF4C06001900220CDE902010E
:102BD00003200490072005900020C4F2020001A900
:102BE000FEF7A4FA252000210022FEF7F7FB25209E
:102BF000FEF7E2FB06B080BD90F83E30202B0BD1F3
:102C000000294FF0010318BF002A01D11846704770
:102C100090F83C30012B03D102231846704700BFC7
:102C200000230363816222218285C285036480F8C8
:102C30003E100269016880F83C301AB1C86840F45F
:102C40008070C860486940F001004861C86840F081
:102C50002000C86018467047016841F20002C4F2C3
:102C60000102914218BF7047B0B540F28E14C2F213
:102C70000004B4F900100546084600F0AFF92846F4
:102C800021460122BDE8B040FFF7B6BF7047000003
:102C9000FEE700002DE9F04186B0002643F6300043
:102CA0000596CDE90366CDE901660096C4F20200FF
:102CB000016841F2004441F0200101600168C4F262
:102CC000020401F0200100910099009601680022A1
:102CD00041F08001016001684FF4007801F080014B
:102CE000009100990096016841F0010101600168BE
:102CF00001F00101009100990096016841F0100176
:102D00000160016801F010010091009900960168CE
:102D100041F00201016000684FF4007100F0020010
:102D2000009000982046FEF7D1FA4FF4C07001AD34
:102D3000CDE901060127204629460397FEF7F6F95B
:102D400020462946CDE90187CDE90376FEF7EEF965
:102D500006B0BDE8F081000010B596B040F29010CA
:102D600000220021C2F20000C4F201024FF6FF73FC
:102D70001591CDE913111191CDE90F11CDE90D1187
:102D8000CDE90B11CDE90911CDE90711CDE9051107
:102D9000CDE90311CDE90111C0E90023C0E9021317
:102DA000C0E904118161FEF7D9FE002818BFFEF7C3
:102DB0005DF94FF48050129040F29010C2F2000082
:102DC00012A9FEF781FF002818BFFEF74FF940F265
:102DD0009010C2F20000FFF741FA002818BFFEF77A
:102DE00045F940F290100024C2F2000010A9CDE98C
:102DF0001044FEF755FE002818BFFEF737F940F2E1
:102E00009010C2F2000009A900220F94CDE90D44F0
:102E1000CDE90B44CDE90944FFF744F9002818BF78
:102E2000FEF724F940F29010C2F2000009A9042232
:102E3000FFF738F9002818BFFEF718F900200590B1
:102E4000CDE90300CDE901004FF40051089040F2B4
:102E500090100691C2F2000001A9FEF7FBFD0028C8
:102E600018BFFEF703F940F29010C2F20000FFF71E
:102E7000B5F816B010BD000010B58EB040F2D810F5
:102E800048F29F640021C2F20000C0F201040D91DB
:102E9000CDE90B110991CDE90711CDE90511CDE976
:102EA0000311CDE901114FF080425323C0E9021410
:102EB00001618021C0E900238161FEF74FFE0028F7
:102EC00018BFFEF7D3F84FF480500A9040F2D810A4
:102ED000C2F200000AA9FEF7F7FE002818BFFEF7AD
:102EE000C5F840F2D810C2F20000FFF7F7FA002848
:102EF00018BFFEF7BBF840F2D8100024C2F2000061
:102F000008A9CDE90844FEF7CBFD002818BFFEF75D
:102F1000ADF86020CDE9010440F2D810C2F2000003
:102F200001A9002203940594FFF7C8F9002818BFEF
:102F3000FEF79CF840F2D810C2F2000001A904226A
:102F4000FFF7BCF9002818BFFEF790F840F2D81040
:102F5000C2F20000FFF742F80EB010BD80B540F29B
:102F6000642044F60041C2F20000C4F200010023D4
:102F70004FF00C0C4FF4E13280E80E00C0E903334F
:102F8000C0E905C3C361FFF797FD002808BF80BDF6
:102F9000BDE88040FEF76AB880B540F2202041F2DB
:102FA0000001C2F20000C4F2010100234FF00C0C3A
:102FB0004FF4E13280E80E00C0E90333C0E905C3F5
:102FC000C361FFF779FD002808BF80BDBDE88040E0
:102FD000FEF74CB8FEE70000FEE70000B0B540F297
:102FE0007415C2F2000569782C2808BF002939D071
:102FF000122808BF012949D003295BD0022963D1D7
:103000002A785B2802F1010105EB42022970D08089
:1030100003D0C8B20A2838BFB0BD03206870C8B258
:1030200005EB400212F8023C12F8041CAB7015F8D4
:10303000100043F298549278C0F60004E8702046DD
:103040002A71FDF7ABF9A9782046FDF7A7F9E978D1
:103050002046FDF7A3F9297922A0BDE8B040FDF78D
:103060009DB900BF297801206870481C287005EBC5
:1030700041032C2541F20040C4F202004FF40071DC
:103080000122DD80BDE8B040FEF720B941F20040EA
:10309000C4F202004FF400710022FEF717F92978FC
:1030A00002206870481C287005EB41001221C18085
:1030B000B0BD00BF287805EB400080885B2803D1B5
:1030C00000202880B0BD00BF00202880C5F8060081
:1030D000C5F80A00C5F80E00C5F81200C5F81600BC
:1030E000B0BD00BF25640D0A00000000704700005D
:1030F00070470000FEF7F6B870B592B006AC2046F7
:103100003021FDF7C7F9002543F640000595CDE9CC
:103110000355CDE901550095C4F20200016802266D
:1031200041F080510160006800F0805000900098EC
:1031300047F200000095C4F20000016841F48041AC
:103140000160006800F48040009000980120099020
:1031500010200A9008200E90A820CDE90F06042028
:10316000119020460696CDE90C65FEF783FA28B14A
:10317000EFF3108072B600BFFEE700BF0F20CDE96D
:1031800001064FF4A05004904FF48050059001A820
:1031900005210395FEF75EF920B1EFF3108072B6BA
:1031A000FEE700BF12B070BD4EF68850CEF20000B0
:1031B000016841F4700101607047000040F2D810CE
:1031C000C2F20000FEF752BE10B540F6FF3E0368A3
:1031D000C4F2000E40F2004C7045C4F2010C25DC34
:1031E000B0F1804F2FD040F20042C4F20002904272
:1031F00029D040F60002C4F20002904223D041F6EA
:10320000FF72C4F20002904227DC70453ADCB0F154
:10321000804F5BD040F20042C4F20002904255D091
:1032200040F60002C4F200024EE000BF40F6004249
:10323000C4F20002904206D0604504D00022C4F2DD
:1032400001029042DBD14A6823F07003134341F638
:10325000FF72C4F200029042D7DD43F6FF72C4F25F
:103260000102904220DC42F20002C4F200029042CD
:103270002CD00022C4F20102904227D0604525D014
:1032800028E000BF40F60042C4F2000290421DD088
:1032900041F60002C4F20002904217D041F600420B
:1032A000C4F2000210E000BF44F20002C4F20102C6
:1032B00090420BD044F60002C4F20102904205D0C5
:1032C00044F20042C4F20102904203D1CA6823F4DE
:1032D0004073134323F080024B69D1F800E08C68FF
:1032E0001A430260C46240F48062C0F828E062457C
:1032F00004BF096901630121416110BD806B002198
:10330000C185C184FFF722B981B090F83E1022290F
:1033100021D183680246B3F5805F09D152F8281F96
:1033200052F8183C002B63D003685B680AE000BFCA
:1033300052F8281F13B90369002BF5D003685B68A6
:1033400003F07F030B70116801311160C18D0139E9
:103350000A04C18502D001B0704700BF0168CA6885
:1033600022F02002CA60CA6822F48072CA604A69E8
:1033700022F001024A61202180F83E10016B0129F0
:103380003ED10021016300BF016851E8031F0268BC
:1033900021F0100142E80313DBB1016851E8031F7B
:1033A000026821F0100142E8031393B1016851E86B
:1033B000031F026821F0100142E803134BB10168BA
:1033C00051E8031F026821F0100142E80313002BAB
:1033D000DAD101680A68D20606D5002200920A688E
:1033E0000092496800910099818D01B0FFF7ACB857
:1033F000026852686FF35F2221F8022B8162A5E711
:1034000001B0FFF729BC0000B0B50446006804F124
:1034100008030ECB0569194325F440552A43026180
:103420006269E3691143C268194349F20C639A4324
:103430001143C1604169A26921F4407141F2004326
:10344000114340F48062C4F201039A42416103D106
:10345000FEF7C6F802E000BFFEF7AEF8E1694FF6EE
:103460009C7563681922C0F6FF75B1F5004FA0FB8B
:1034700002011FD15A00DB0FFCF718FF48F21F5161
:10348000C5F2EB11A0FB01235A0905F1805302FBA1
:103490000300322303EBC000A0FB01014FF4F870DE
:1034A00000EA111000EB0210C1F342110844216838
:1034B0008860B0BD9A009B0FFCF7F8FE48F21F51E0
:1034C000C5F2EB11A0FB01235A0902FB05003223D0
:1034D00003EB0010A0FB0101F02000EA511000EB0B
:1034E0000210C1F34311084421688860B0BD000098
:1034F00040F22020C2F20000FFF72AB8FEE70000E9
:1035000082B0FDF7FDFEFFF7F7FDFFF7C3FBFFF706
:1035100023FCFFF723FDFFF7AFFCFFF73DFD40F273
:103520009010C2F20000FEF77DFB40F22020C2F2B4
:1035300000000DF106010122FFF75EFBFEE78A683D
:10354000002A02DC0022FDF73FB9521E8A604A6859
:10355000C0B2531C4B6010707047F1EE100A4FF66A
:10356000FF71C0F2C03120EA010040F04070E1EE8E
:10357000100A70473A7474003A7474003A74740014
:103580000000000000000000010203040607080913
:10359000000000000102030425640D20202000002B
:1035A000C03500080000002018000000EC010008F1
:1035B000D835000818000020980800000C02000808
:1035C00000000000000000000000000001000000FA
:0835D000100000000024F400CB
:040000050800018965
:00000001FF
