:020000040800F2
:10000000B80900206D02000855380008FD320008CC
:1000100051380008850E0008B53F000800000000B8
:100020000000000000000000000000006939000826
:10003000950E000800000000653900086D390008C1
:10004000870200088702000887020008870200086C
:10005000870200088702000887020008870200085C
:10006000870200088702000887020008870200084C
:10007000870200088702000887020008870200083C
:1000800087020008890E000887020008870200081E
:10009000870200088702000887020008990E0008FE
:1000A000870200088702000887020008870200080C
:1000B000353A000887020008870200088702000816
:1000C00087020008870200088702000887020008EC
:1000D000870200089D3F0008A93F0008870200082A
:1000E00087020008870200088702000887020008CC
:1000F00087020008870200088702000887020008BC
:1001000087020008870200088702000887020008AB
:10011000870200088702000887020008870200089B
:10012000870200088702000887020008870200088B
:10013000870200088702000887020008870200087B
:10014000870200088702000887020008870200086B
:10015000870200088702000887020008870200085B
:10016000870200088702000887020008870200084B
:1001700087020008870200088702000800000000CC
:10018000870200088702000800F002F800F05FF81C
:1001900014A696E8000CB244B344DA4501D100F04D
:1001A00056F8BAE80F000FA696E83000A5EB040554
:1001B00004EB0607AAEB0704A7F101074FEA1515A0
:1001C0004FEA3414A4F10104AC4201D300F03FF82B
:1001D00013F0010F18BFFB1A43F0010300F001F800
:1001E000DBE71847343F0000543F0000103A24BFBB
:1001F00078C878C1FAD8520724BF30C830C144BF8C
:1002000004680C6070470000704700000023002461
:1002100000250026103A28BF78C1FBD8520728BF16
:1002200030C148BF0B607047642900F0F7800020A0
:1002300070471FB503F049FF9DE8030000F0EAFB9B
:1002400000F0DAF91FBD10B500F03FFA10BD00F064
:100250006FFA1146FFF7EDFF03F0BEFE00F076FBEC
:1002600003B4FFF7F0FF03BC00F052FD09488047DC
:1002700009480047FEE7FEE7FEE7FEE7FEE7FEE788
:10028000FEE7FEE7FEE7FEE704480549054A064BA0
:1002900070470000213A000889010008B8030020D7
:1002A000B8090020B8050020B805002053EA020C68
:1002B00000F069802DE9F04B4FF00006002B1FBFC6
:1002C000B3FA83F503FA05F424FA05F65E4012BF8B
:1002D0001643B2FA82F502FA05F4C5F120051EBFF5
:1002E00022FA05FC44EA0C04203556EA044C4FEA95
:1002F000144418BF641C4FF000084FF000099042EE
:1003000071EB030C39D3002919BFB1FA81F701FA57
:1003100007F6B0FA80F700FA07F6C7F120071EBF0C
:1003200020FA07FC46EA0C062037B6FBF4FCA7EBE4
:100330000507103F07F01F0BCBF120062CFA06F63D
:100340000CFA0BFB44BFB3460026202FA4BF5E4629
:100350004FF0000B5BEA060C08BF4FF0010B19EBE6
:100360000B0948EB0608ABFB027C06FB02CC0BFB3F
:1003700003CCC01B71EB0C01C1E70B4602464146A2
:100380004846BDE8F08B13B5084318BF4FF0FF3067
:100390000146AFF30080BDE81C4070470FB404492C
:1003A00010B503AA029800F0F9F810BC5DF814FB30
:1003B0006C0000202DE9F0410E460446002020622A
:1003C0002046E168884730B3252805D0D4E90121CB
:1003D0009047206A401CF2E7E168204600278847E2
:1003E000050018D0A5F14100192802D820354FF496
:1003F00000673246294620462760FFF715FF40B1C7
:10040000012804D0F61D26F007060836D8E7361D69
:10041000D6E72846DAE7206ABDE8F0812DE9F04109
:100420000646002410687529314616A510D0AFF392
:100430000080002802DA404213A507E031688A07ED
:1004400001D512A502E0490704D511A5012401E058
:10045000AFF3008000210A2206F1240709E0B0FB77
:10046000F2FCB0FBF2F302FB1C003030785418466B
:10047000491C0028F3D123462A463046BDE8F04106
:1004800000F032B8000000002D0000002B0000003A
:10049000200000004FF0000200B513469446964637
:1004A000203922BFA0E80C50A0E80C50B1F1200187
:1004B000BFF4F7AF090728BFA0E80C5048BF0CC035
:1004C0005DF804EB890028BF40F8042B08BF704793
:1004D00048BF20F8022B11F0804F18BF00F8012B05
:1004E00070477047704770472DE9F0470D469946B1
:1004F0009246044600F124080168880604D5E069A4
:1005000021F01001216000E00120A84201DD471B1D
:1005100000E00027A1697A1902EB0900081AA0611E
:100520002078C00602D42046AFF30080002608E001
:10053000D4E901211AF806009047206A401C761C75
:1005400020624E45F4DB2078C0060AD52046AFF382
:10055000008006E0D4E9012130209047206A401C49
:100560002062381EA7F10107F4DC07E0D4E901217D
:1005700018F805009047206A401C2062281EA5F14B
:100580000105F3DC2046AFF300802078000602D599
:100590000220BDE8F0870120FBE70000074B70B5A3
:1005A0000D467B4400F011F80446284600F020F880
:1005B00010B14FF0FF3070BD204670BD133A0000FF
:1005C00001694A1C02610878704700B58FB0CDE917
:1005D00001310021059105497944CDE90310114607
:1005E0006846FFF7E7FE0FB000BD0000E5FFFFFF24
:1005F000007B00F08000704710B542485421FFF79F
:1006000049FF41485421FFF745FF40485421FFF777
:1006100041FF3F493B483C4A3F4B08603D490A6027
:100620003A491960531C0365481C10650120086590
:100630003B48344A39A1784400F0EAF820B93848F8
:1006400078440A3800F08BF937482F4A35A17844AE
:1006500000F0DEF820B9344878440A3800F07FF919
:1006600032482A4A2FA1784400F0D2F820B92F4806
:1006700078440A3800F073F940232248DC00002156
:10068000224600F0A1F820B125487844543800F003
:1006900066F91D4822464023002100F095F820B15C
:1006A00021487844543800F05AF91848224610235B
:1006B000002100F089F8002806D01C487844BDE8E5
:1006C0001040563800F04BB910BD104870B5006DA1
:1006D00020F001040B4800F013F90B4800F010F96A
:1006E0000A4800F00DF909E0206D20F001052046D0
:1006F00000F006F9204600F040F82C46002CF3D11B
:1007000070BD0000180000206C000020C000002018
:1007100000000020040000200800002072000000FB
:10072000AA3A000077000000963A0000823A0000E2
:10073000754600F04FF9AE4605006946534620F075
:100740000700854618B020B5FFF79EFDBDE82040A4
:100750004FF000064FF000074FF000084FF0000B7D
:10076000AC46ACE8C009ACE8C009ACE8C009ACE8EC
:10077000C00921F007018D46704770B50446051F7A
:1007800000F02CF90068002C14BF446870BD002CE8
:1007900018BFAC423CBF20466468F8D301680A1811
:1007A000AA4218BF456003D12A680546114401607A
:1007B00028684119A1421CBF6C6070BD6168696006
:1007C00021680844286070BD70B5C468A50713D0BF
:1007D000650211D4B2F5807F09D0B2F5007F06D052
:1007E000B2F5806F08D1012300F1240106E05D1EFF
:1007F0006FF07F46B54201D3012070BD0161C36136
:10080000416024F470611143C160002070BD00009C
:100810002DE9F0410C461646070047D0104600F07F
:100820006FF82078611C61280AD0722802D07728DE
:100830003CD102E00125002405E00225042402E069
:10084000082448F2020511F8010B2B2806D0622873
:1008500009D011F8010C74280AD00BE045F003050B
:1008600044F00204EFE745F0040544F00104EAE730
:1008700044F010043846214600F078F8411C15D0A9
:100880000021316171604FF40071F560F1617061B8
:10089000200704D530460222002100F019F9306DFE
:1008A00040F0010030653046BDE8F0810020FBE7F4
:1008B0002DE9F0410D460646104C206DC10704D0CD
:1008C000410804D020F00104F7E722460EE054204E
:1008D00000F0CFF807000ED0206D47F0010108436B
:1008E000542120653846FFF7D5FD3A462946304663
:1008F000BDE8F0418CE70020D6E70000180000209A
:100900002DE9F04704464FF0FF380026C568D4E9CA
:100910000497A80718D0204600F096F9384600F052
:100920002FF8002800DA4646280502D54846FFF78A
:1009300024FF4C212046FFF7ADFD206D20F0010083
:1009400020653046BDE8F0874046FBE710B5044619
:10095000AFF300802046BDE81040FFF781BC10B522
:1009600000F0BCF9BDE8104000F0B2B90EB5CDE919
:10097000000100F035FA029069460120ABBE0EBDC1
:1009800008B5694600900220ABBE08BD1FB58DE8D2
:10099000070069460520ABBE04B010BD1FB58DE849
:1009A0000F0069460620ABBEF6E708B56946009021
:1009B0000920ABBE08BD1CB5CDE9000169460A207F
:1009C000ABBE1CBD704708B5694600900C20ABBE9D
:1009D00008BD00000048704714010020004870471F
:1009E0001C010020704770477047704738B50446B7
:1009F0000A4600206946AFF30080002808BF38BDD2
:100A000002460099204600F090F9012038BD0120EF
:100A100000F0DFB9F8B5AFF30080054600200C46C2
:100A20000C2000BF0646A819A0420DD932466946DF
:100A30000020AFF30080070008BF00F0CAF900985B
:100A4000A04218BF0546C419FFF7C8FF0560074656
:100A5000F01D20F007004619284600F060F9B44266
:100A600008BFF8BDA21B31463868BDE8F84000F069
:100A70005CB970B50646FFF7B1FF056806F10B00DB
:100A800020F00704B4429CBF002070BD2B466A686A
:100A9000BAB11068A04210D304F1080188423CBFEB
:100AA0005068586007D35168101941601168091BDC
:100AB000016058601460101D70BD13465268002A12
:100AC000E7D121462846FFF791FF0028DED170BD0F
:100AD0002DE9F041044616460D464769007B800724
:100AE0002ED03846FFF761FF50BB3EB3012E02D037
:100AF000022E25D104E0204600F031F905441DE026
:100B00003846FFF760FFE168002841F01001E1601E
:100B100005DA204600F058F80120BDE8F081C9034D
:100B20000BD56268E16A914200D81146A26911446E
:100B30002269891A814200DD08460544002D01DA48
:100B40000220EAE7E16A6068E268814206D2910326
:100B5000E06203D522F4003141F01002A6690027BB
:100B6000AE4213DCE16A814201D90B4600E0034644
:100B700003EB060C2369ACEB030CAC4506DD8142AC
:100B800001D98C4600E084469C4505D1A7602760CA
:100B900042F02000A5620DE0AD1BE669AE1B81426C
:100BA000A66000D90846C01A281A2060581960604B
:100BB00022F0200003490840E060002084F84870DB
:100BC000ABE70000BFCFD7FFC16821F4001141F0AF
:100BD0008001C16000218160016070472DE9F74FFD
:100BE00015460C464FF0FF3B3848D768D2F814A0A2
:100BF000074209D05046A969FFF7DDFE002819DB3E
:100C00003248C0430740EF604FF000496FF00048A2
:100C10004C4501D3464600E0264600993B465046E7
:100C20003246FFF7B3FEA96920F00042B21A114420
:100C3000A96128B12846FFF7C7FF5846BDE8FE8FD7
:100C4000A41BE5D10020F9E770B504460569C06A28
:100C50006168884200D80846E16821F42011E1600B
:100C6000C90312D5A84208D02246411B2846FFF7E7
:100C7000B5FF10B14FF0FF3070BD0020E562C4E950
:100C80000150E06820F48030E060002070BD10B5B5
:100C90000446C06820F02000E060A16AA069884294
:100CA0000DD02046FFF7D0FFE06820F4405040F020
:100CB0001000E060A06AA0612069E062606044F218
:100CC0004001E0688843E06010BD000010000200B1
:100CD000002801D000F01CB87047000010B5014694
:100CE00002A000F05DF8012010BD000053494752FA
:100CF000545245443A2052656469726563743A20DF
:100D000063616E2774206F70656E3A2000000000EA
:100D100001491820ABBEFEE7260002007047002103
:100D20000160416070470C207047034640688C4664
:100D3000002818BF88423CBF03464068F8D31868B3
:100D40001844884207D00CF1030020F00700001D72
:100D5000411A521A0146081D0A60FFF70EBD10B570
:100D60000146C268900703D0900607D5886A0AE05A
:100D700000F05CF801210160881E10BD8B69486895
:100D800018440B69C01A91F848301BB191F849100A
:100D9000401A10BD1103FCD50028FADD401E10BD1D
:100DA00070B505460C460A2000E06D1C00F037F8CF
:100DB00035B128780028F8D102E0641C00F02FF843
:100DC00014B120780028F8D1BDE870400A2000F066
:100DD00026B810B500F02EF8BDE81040FFF778BF38
:100DE00010B5431C02E010F8011B71B18107FAD164
:100DF0004FF0013202C88C1A8C4314EAC211F9D0A8
:100E0000C01A0A0603D0C01E10BDC01A10BD0A04C5
:100E100001D0801E10BD0902FCD0401E10BD08B5D7
:100E200069468DF800000320ABBE08BD004870473E
:100E30001401002010B5012805D0002103A0FFF700
:100E4000AFFF012010BD09A1F8E700005349475248
:100E5000544D454D3A204F7574206F66206865618A
:100E600070206D656D6F7279000000003A20486552
:100E70006170206D656D6F727920636F727275702D
:100E800074656400FEE7000040F2AC10C2F200009E
:100E900000F066B870470000802000F053BA0000F0
:100EA000EFF3108072B600BFFEE7000070B5866DEC
:100EB000044600F029FB94F83510022928D1054694
:100EC0002068216C026822F016020260426922F05A
:100ED0008002426109B9A16C19B1016821F00801D1
:100EE0000160016821F00101016000BF2068006815
:100EF000C00715D000F008FB401B0628F6D32020C1
:100F00006065032084F83500002184F8341070BD3A
:100F1000802060650120002184F8341070BD00BF7E
:100F2000E06D3F2101FA00F0B060012084F8350047
:100F30000020002184F8341070BD000090F83510B6
:100F4000022909D1052180F835100068016821F0D7
:100F50000101016000207047802141650120704738
:100F6000F0B581B00021009140F21401C2F20001FD
:100F70000B68D0E9166148F2B51537680822C1F64A
:100F80004E358A403A42A3FB05350CD003681C68F5
:100F9000640708D51C6824F004041C60B260426D2C
:100FA00042F00102426501228A403A4208D00368B9
:100FB0005B691B0604D5B260426D42F002024265D5
:100FC00004228A403A4208D003681B689B0704D574
:100FD000B260426D42F00402426510228A403A42F9
:100FE00019D001680B681B0715D5B2600B680A6839
:100FF0005B0309D4D20509D40A6822F008020A600A
:10100000016C29B907E000BF110341D4016C11B193
:10101000044688472046C26D202101FA02F33B4274
:1010200043D001680F68FF063FD5B36090F8357074
:101030000B68052F1CD123F016030B604B6923F0BE
:1010400080034B61036C0BB9836C1BB10B6823F0FD
:1010500008030B603F219140B160012180F83510F9
:10106000016D0022002980F8342054D158E000BFDF
:101070000A685B0310D4D20512D40A6822F0100269
:101080000A60012180F83510002180F8341007E053
:10109000816C0029BCD1BEE7110301D4416C00E092
:1010A000C16B11B1044688472046416DC1B3416D03
:1010B000C9072ED0052180F835100168AA0A0B68EF
:1010C00023F001030B60009B0133934200931AD875
:1010D0000B68DB0717D0009B01339342009312D8B3
:1010E0000B68DB070FD0009B0133934200930AD8B3
:1010F0000B68DB0707D0009B01339342009302D8B3
:101100000B68DB07DFD1012180F83510002180F862
:101110003410C16C21B101B0BDE8F040084700BFF8
:1011200001B0F0BD2DE9F041044600F0EDF9ECB15D
:101130000546022084F835000020216884F8340038
:10114000086820F00100086021680868C00711D015
:1011500000F0DAF9401B0528F6D9032520230320E7
:10116000636584F83550BDE8F08100BF0120BDE81B
:10117000F08100BF086848F23F02CFF21002D4E9C4
:10118000013500EA020C04F10C0898E8C10143EAB9
:101190000C032B431843D4E9072E30433843104344
:1011A000626A40EA0E00042A40EA08031CD1206B60
:1011B000D4E90A2E40EA0E00184308604869BEF1DF
:1011C000000F20F0030040EA020040F0040C11D0B0
:1011D000B8F5005F36D0B8F1000F45D1022A46D0ED
:1011E000012A3BD032B942E00B60486920F0070089
:1011F00040EA020C01F0F8004AF6AB221038CAF6B9
:10120000AA22A0FB02231A0944F20813C1F814C051
:10121000C0F600039A5C40F2FF335F284FF03F00B6
:1012200021EA030100FA02F088BF0431C4E9161272
:101230008860002301250020636584F83550BDE8EF
:10124000F08100BF032AD5D8012540230120DFE823
:1012500002F0030E030500BF82E700BFAEF1C070CD
:10126000B0FA80F0400904E0032A04D3C2D1CEF3DF
:1012700000600028BED0012540230120636584F86A
:101280003550BDE8F081000090F834C0BCF1010F8A
:1012900004BF0220704770B54FF0010C80F834C0D5
:1012A000D0F858E090F835C0BCF1010F38D14FF0BC
:1012B000020C80F835C04FF0000CC0F854C0D0F8D4
:1012C00000C08468056CC06DDCF80060402C26F41A
:1012D0008026CCF80060CCF804300B4604BF1346DF
:1012E0000A463F2101FA00F0CCF80830CCF80C2077
:1012F000CEF80800DCF8000040F01600CCF8000042
:101300002DB1DCF8000040F00800CCF80000DCF85B
:10131000000040F00100CCF80000002070BD00BFCC
:10132000002180F83410022070BD0000802818BF12
:10133000704780B5002002F0A3FE0020BDE8804089
:1013400002F078BE43F61441C4F201010A68024279
:1013500014BF08607047FFF7E9BF00002DE9F04FA8
:1013600083B000F1200200F13E4741F600450092B3
:1013700007F1FF77C4F2020508224FEAB726A84218
:1013800008BF072200254FF000084FF00009072E84
:1013900038BF4FEAB72201920AE000BF09F1010904
:1013A00008F10208B9F1100F05F1040500F0A28060
:1013B0000F68012202FA09FE17EA0E0AEED0D1F8F0
:1013C00004C003220CF003077E1E02FA08F4012E6B
:1013D0006FEA040B12D88468CE6804EA0B0406FA9C
:1013E00008F634438460446824EA0E06CCF3001403
:1013F00004FA09F42643466004E000BF032F01D13C
:1014000003271EE0C6688C6806EA0B0604FA08F497
:101410002643022FC66014D16FF00302009E02EA39
:10142000590756F807C005F01C040F220B69A240AB
:101430002CEA0202A3401A43F251D1F804C00CF086
:101440000307026807FA08F302EA0B021A431CF4C6
:10145000403F0260A2D0002243F644030292C4F24D
:1014600002031A6843F6004442F480421A601A6884
:10147000C4F2010402F480420292029A29F00302AB
:101480004FF6084C2244CFF6FF7C52F80C3005F0A2
:101490000C070F26BE40B343019E06FA07F73B43F5
:1014A00042F80C30A2684B6842EA0A0743F60C4C3B
:1014B000DE0258BF22EA0A07A760C4F2010CDCF87A
:1014C00000209E0242EA0A0758BF22EA0A07CCF827
:1014D000007062689E0342EA0A0758BF22EA0A07C0
:1014E00067602268DB0342EA0A0758BF22EA0A075C
:1014F000276053E703B0BDE8F08F0000002A08BF63
:10150000090481617047000040F2B030C2F200006F
:101510000068704740F20C0040F2B031C2F20000A7
:10152000C2F2000100780A681044086070470000A9
:1015300080B543F60040C4F20200016841F4007136
:101540000160016841F480610160016841F48071CB
:101550000160032000F086F80F2000F005F800F08D
:1015600027F8002080BD000070B540F20C06C2F2E2
:10157000000640F214013278C2F200014FF47A738F
:101580000968B3FBF2F20446B1FBF2F1084600F041
:101590005FFB0F2C4FF0010508D838B94FF0FF3032
:1015A00021460022002500F031F87460284670BD05
:1015B00082B0002043F640010190C4F202014A6863
:1015C00042F480424A604A6802F480420192019AE1
:1015D0000090086840F080500860086800F0805073
:1015E0000090009802B07047002848BF704700F094
:1015F0001F01012202FA01F11C2202EAD0004EF280
:101600000012CEF2000281507047000010B54EF675
:101610000C5CCEF2000CDCF80030C3F3022E8EF02E
:101620000704042C28BF0424BEF103034FF0FF3E3F
:101630000EFA04F438BF0023A14399400EFA03F3D5
:101640009A43114300F00F0200F160430901043A8C
:1016500003F564436244002848BF02F10C0319708B
:1016600010BD00004EF60C51CEF200010A684FF694
:10167000FF031A4060F30A2242F0806040F0FD70E0
:1016800008607047002804BF012070472DE9F04131
:1016900043F60808C4F202080446D8F8F8030D46D9
:1016A00000F00700884207D288F8F853D8F8F8030A
:1016B00000F00700A84277D12068810717D54107BD
:1016C00005D5D8F8001041F4E051C8F80010010722
:1016D00005D5D8F8001041F46041C8F80010D8F8DA
:1016E0000010A26821F0F0011143C8F80010C007F3
:1016F00040D1D8F8F80300F00700A84207D988F8CD
:10170000F853D8F8F80300F00700A8424CD120683D
:10171000410707D5D8F80010E26821F4E0511143E1
:10172000C8F80010000708D5D8F80000216920F497
:10173000604040EAC100C8F8000000F07DF8D8F829
:10174000001044F2F002C1F30311C0F60002515C34
:1017500040F2140220FA01F140F21000C2F200003F
:101760000068C2F200021160FFF7FEFE0020BDE833
:10177000F08100BF6068811E022907D258F8081C5A
:1017800089015CBF0120BDE8F08111E0012807D18B
:1017900058F8081C89035CBF0120BDE8F08107E010
:1017A00058F8081C890703D40120BDE8F08100BF68
:1017B000D8F8001021F003010843C8F80000FFF733
:1017C000A3FE064641F28837D8F80000616800F0B1
:1017D0000C00B0EB810F8CD0FFF796FE801BB84257
:1017E000F2D90320BDE8F08140F2140043F608016D
:1017F000C2F20000C4F202010068096844F200125B
:10180000C1F38221C0F60002515CC840704700005D
:1018100040F2140043F60801C2F20000C4F20201D3
:101820000068096844F20012C1F34231C0F60002B8
:10183000515CC8407047000010B543F60404C4F280
:101840000204606800F00C0008280BD0042819BFBF
:1018500042F20040C0F2F40047F64000C0F27D10B2
:1018600010BD00BF206821682368490247F6400187
:10187000C0F27D1100F03F02C3F388105CBF42F25A
:101880000041C0F2F401A1FB00010023FEF70EFDB0
:1018900021680222C1F3014102EB4101B0FBF1F0EA
:1018A00010BD0000002804BF012070472DE9F04161
:1018B00082B00446007843F60006C007C4F2020670
:1018C0000CD0B06800F00C00042840F08180306833
:1018D000800303D56068002800F0688120788007C5
:1018E0001BD5B06810F00C0F09D0B06800F00C00E8
:1018F000082840F087807068400200F183803068DB
:10190000800703D5E068012840F0508130682169E4
:1019100020F0F80040EAC10030602078000713D4BE
:10192000207840072AD4A569002D00F03A81B068DC
:1019300000F00C00082840F0A580012D40F00E8139
:10194000012002B0BDE8F0816069002800F08280CB
:101950000020C4F247200121C0F8801EFFF7D4FD0B
:10196000054600BF706F8007DAD4FFF7CDFD401B3E
:101970000228F7D9032002B0BDE8F081306C5FEA9D
:10198000C0080AD400200190306C40F080503064D0
:10199000306C00F080500190019847F20007C4F2CB
:1019A00000073868C00547D4386840F48070386054
:1019B000FFF7AAFD054600BF3868C0053CD4FFF715
:1019C000A3FD401B0228F7D9032002B0BDE8F08137
:1019D000B06800F00C00082803D1706840023FF5A1
:1019E00076AF61683068B1F5803F07D0B1F5A02FC0
:1019F00040F09A8040F480203060306840F48030BD
:101A000030609AE0E068002840F20000C4F247200D
:101A10005CD001210160FFF777FD05463068800743
:101A20003FF574AFFFF770FD401B0228F6D9032085
:101A300002B0BDE8F08100BFA168306F012905D078
:101A4000052955D140F004003067306F40F00100A7
:101A5000306756E00020C4F247200021C0F8801E05
:101A6000FFF752FD054600BF706F80077FF558AF46
:101A7000FFF74AFD401B0228F6D9032002B0BDE85B
:101A8000F08100BF0027C4F2472700203866FFF727
:101A90003BFD022D05460DD13068800140F18A8062
:101AA000FFF732FD401B02284FF00300F4D902B0CB
:101AB000BDE8F0813068800173D5FFF725FD401B3C
:101AC00002284FF00300F5D9F1E700BF00210160C3
:101AD000FFF71AFD054600BF306880077FF51DAF90
:101AE000FFF712FD401B02284FF00300F4D9DEE798
:101AF00020F001003067306F002920F004003067CB
:101B00007AD0FFF701FD054641F28837306F800734
:101B100000F18480FFF7F8FC401BB842F6D903209F
:101B200002B0BDE8F08100BF20F480303060306842
:101B3000002920F4802030607AD0FFF7E5FC0546CC
:101B4000306880033FF5CAAEFFF7DEFC401B642817
:101B5000F6D9032002B0BDE8F08100BF7068E169EA
:101B600000F480028A4221D1216A00F03F028A42B9
:101B70001CD147F6C071626A0140B1EB821F15D1DA
:101B8000A16A4FF6FF73C903994300F44032A1F5EF
:101B900080318A420AD1E16A00F07060B0EB016FD7
:101BA00004D1002002B0BDE8F08100BF012002B0E6
:101BB000BDE8F08104F11C052FCD084340EA8210F6
:101BC000D9034FF6FF729143A1F5803140EA0560D9
:101BD0000843706001203866FFF796FC044600BF9A
:101BE00030688001DDD4FFF78FFC001B02284FF026
:101BF0000300F5D95BE700BFFFF786FC054641F21D
:101C0000883700BF306F800708D5FFF77DFC401B89
:101C1000B8424FF00300F5D949E700BFB8F1000F13
:101C20003FF581AE306C20F0805030647BE600BF21
:101C3000FFF76AFC054600BF306880037FF54EAEB3
:101C4000FFF762FC401B64284FF00300F4D92EE735
:101C5000411E0020B0EB116F1CBF012070474EF2F7
:101C60001002CEF2000251604EF62351CEF2000176
:101C7000F0230B70072190601160704770470000DF
:101C80007047000090F83C20012A04BF02207047F2
:101C9000B0B501F108053CCDD1E900CE23F47C5369
:101CA00022F470521A432EF4F0431A432CF4E0430A
:101CB0001A4324F4C0431A432A43C96922F48042D8
:101CC000036811435964002180F83C100020B0BD26
:101CD00090F83C20012A4FF0020254D010B580F851
:101CE0003D200268D2F804E0D2F808C00C682EF05B
:101CF0007003234341F2FF74C4F20004A242536014
:101D00000EDC40F2FF73C4F200039A4216DCB2F11B
:101D1000804F2BD040F20043C4F2000324E000BF08
:101D200040F2FF33C4F201039A4213DC41F6000390
:101D3000C4F200039A4219D0002313E040F60003D6
:101D4000C4F200039A4211D040F60043C4F20003EB
:101D50000AE000BF44F20003C4F201039A4205D036
:101D600040F20043C4F201039A4204D149682CF0C6
:101D70008003194391600121002280F83D1080F812
:101D80003C20BDE81040104670470000002804BF0A
:101D90000120704710B5044690F83D0028B9002096
:101DA00084F83C00204600F01FF8022084F83D0033
:101DB0002068211D01F044FE012084F8460084F8CB
:101DC0003E0084F83F0084F8400084F8410084F825
:101DD000420084F8430084F8440084F8450084F805
:101DE0003D00002010BD000080B584B00068B0F157
:101DF000804F2DD040F20041C4F20001884215D03E
:101E00000021C4F2010188421FD10020039043F653
:101E10004000C4F20200416841F0010141604068A5
:101E200000F001000390039804B080BD00200190F1
:101E300043F64000C4F20200016841F00201016073
:101E4000006800F002000190019804B080BD00BF5E
:101E50000020029043F64000C4F202000168002214
:101E600041F0010101600068002100F001000290D2
:101E700002981C20FFF7CAFB1C2004B0BDE880407C
:101E8000FFF7B2BB90F83D1001291CBF012070473D
:101E9000022180F83D10006841F2FF71C4F2000198
:101EA00088420DDC40F2FF71C4F20001884215DC6B
:101EB000B0F1804F2AD040F20041C4F2000123E08B
:101EC00040F2FF31C4F20101884213DC41F6000107
:101ED000C4F20001884219D0002113E040F600014D
:101EE000C4F20001884211D040F60041C4F2000162
:101EF0000AE000BF44F20001C4F20101884205D0AB
:101F000040F20041C4F20101884206D1816801F02B
:101F10000701062904BF00207047016841F0010154
:101F2000016000207047000090F83D1001291CBF9F
:101F300001207047022180F83D10006841F2FF72D5
:101F4000C168C4F20002904241F00101C1600DDCA1
:101F500040F2FF71C4F20001884215DCB0F1804FFD
:101F60002AD040F20041C4F2000123E040F2FF31E8
:101F7000C4F20101884213DC41F60001C4F2000101
:101F8000884219D0002113E040F60001C4F200019C
:101F9000884211D040F60041C4F200010AE000BFBF
:101FA00044F20001C4F20101884205D040F2004130
:101FB000C4F20101884206D1816801F007010629B7
:101FC00004BF00207047016841F00101016000205A
:101FD0007047000090F83C20012A4FF002026CD0BC
:101FE00080B580F83D20D0F800C04FF67772DCF85D
:101FF000083023EA0202CCF808200B684F2B29DCBA
:102000001F2B45DD202B46D0302B44D0402B40F0F9
:10201000AF80D1F804E0C968DCF82030DCF820207B
:1020200022F00102CCF82020DCF8182022F0F00287
:1020300042EA011123F00A0242EA0E02CCF818101B
:10204000CCF82020DCF8081041F0470121F03001E5
:1020500028E000BF6F2B33DDB3F5005F74D0B3F51C
:10206000805F21D0702B40F08380D1E901E3C96803
:10207000DCF8082043EA0E0322F47F4243EA012100
:102080001143CCF80810DCF8081041F0770109E0A2
:102090000BB1102B6CD1DCF8081021F07001194342
:1020A00041F00701CCF808100022012180F83D1012
:1020B000002180F83C10BDE880401046704700BF0A
:1020C000502B21D0602B53D1D1F804E0C968DCF843
:1020D000203023F01003CCF82030DCF81830DCF886
:1020E000202023F4704322F0A00243EA013142EAA7
:1020F0000E12CCF81810CCF82020DCF8081041F0B3
:10210000670121F01001CDE7D1F804E0C968DCF8DF
:102110002030DCF8202022F00102CCF82020DCF86E
:10212000182022F0F00242EA011123F00A0242EAEA
:102130000E02CCF81810CCF82020DCF8081041F082
:10214000570121F02001ADE7D1E901E3C968DCF8CE
:10215000082043EA0E0322F47F4243EA012111439F
:10216000CCF80810DCF8081041F480419AE700BF71
:1021700001229AE77047000010B50168044608691B
:10218000800744BFC8685FEA807039D40869400797
:1021900044BFC8685FEA40703ED40869000744BF86
:1021A000C8685FEA007045D40869C00644BFC868C3
:1021B0005FEAC0604AD40869C0071CBFC8685FEA0C
:1021C000C07051D10869000644BFC8685FEA00606A
:1021D00052D40869400644BFC8685FEA406053D4DF
:1021E0000869800646BFC8685FEA806010BD6FF06E
:1021F000200220460A61BDE81040FFF741BD00BF44
:102200006FF002000861012020778869800743D0C1
:102210002046FFF7AFFF45E06FF0040008610220A1
:102220002077886910F4407F40D02046FFF7A2FF56
:1022300042E000BF6FF00800086104202077C86901
:1022400080073DD02046FFF795FF3FE06FF010007C
:10225000086108202077C86910F4407F3AD02046F2
:10226000FFF788FF3CE000BF6FF0010008612046E7
:1022700000F088FA2168A5E76FF080000861204629
:10228000FFF7FCFC2168A4E76FF0400008612046DE
:1022900000F08EFA2168A3E7204600F0FFF8204600
:1022A00000F06EFA2168002020776FE7204600F0EA
:1022B000F5F8204600F064FA2168002020776CE7EA
:1022C000204600F0EBF8204600F05AFA2168002082
:1022D000207769E7204600F0E1F8204600F050FA48
:1022E00021680020207766E790F83C30012B04BF7E
:1022F000022070474FEAB202032A00F2C980F0B50B
:10230000DFE802F0028A3264026840F20045136A94
:1023100042F4806423F001031362136AD2F804E0EC
:10232000D2F818C08E6823F00203C4F20105AC4253
:1023300043EA060305D1CE6823F00C0326F0040619
:1023400033430E68AC4206D1D1E905472EF44075FF
:10235000254345EA070E2CF073073743C2F804E023
:1023600097614968516389E0026840F20045136A49
:1023700042F4806423F480731362136AD2F804E099
:10238000D2F81CC08E6823F40073C4F20105AC427D
:1023900043EA062307D1CE6840F2FF47360223F412
:1023A0004063BE4333430E68AC4206D1D1E90545D4
:1023B0002EF44057254347EA051E2CF07307374398
:1023C000C2F804E0D7614968D16357E0026840F27F
:1023D0000047136A42F4806623F480531362146A40
:1023E0005368D2F81CE00D68D1F808C0C4F20107A8
:1023F000BE4204D14E6923F4804343EA86132EF48F
:10240000E64747EA05275360D761496824F400543A
:1024100044EA0C33116431E0026840F20045136A6B
:1024200042F4806423F010031362136AD2F804E0CC
:10243000D2F818C08E6823F02003C4F20105AC4224
:1024400043EA061307D1CE686FF0400723F0C003BC
:1024500007EA061633430E68AC4206D1D1E90545BA
:102460002EF44067254347EA850E2CF4E64747EAF9
:102470000627C2F804E0976149689163002113625E
:10248000BDE8F040002280F83C200846704700BFBD
:102490000121002280F83C20084670477047000068
:1024A000002804BF0120704710B5044690F83D0095
:1024B00028B9002084F83C00204600F01FF80220D4
:1024C00084F83D002068211D01F0BAFA012084F84B
:1024D000460084F83E0084F83F0084F8400084F809
:1024E000410084F8420084F8430084F8440084F8F2
:1024F000450084F83D00002010BD0000704700003A
:1025000090F83C30012B04BF022070474FEAB20222
:10251000032A00F2FF802DE9F043DFE802F003B167
:102520003F7F00BF036840F200461A6A43F48065AB
:1025300022F001021A621C6A1A46D3F804C052F84B
:1025400018EF8F6824F00204C4F20106B54244EA91
:10255000070405D1CF6824F00C0427F004073C439E
:102560000F68B54206D1D1E905582CF440762E43C8
:1025700046EA080C2EF073063743C3F804C09F6187
:102580004F6809695F631C629F6947F008079F6194
:102590009F6927F004079F61B1E000BF036840F224
:1025A00000481A6A43F4806522F480721A621C6A39
:1025B0001A46D3F804C052F81CEF8F6824F4007454
:1025C000C4F20108454544EA072408D1CF6840F227
:1025D000FF463F0224F4406427EA06063443D1F85C
:1025E0000090454506D1D1E905562CF440572E43BD
:1025F00047EA061C2EF0730747EA0907C3F804C030
:10260000DF614F680969DF631C62DF6947F0080713
:10261000DF61DF6927F00407DF6170E0036840F2E3
:1026200000451A6A43F4806722F480521A621A46FF
:10263000D3F820C05C6852F81C8FD1F800E08E6897
:10264000C4F20105AF4204D14D6924F4804444EA48
:1026500085142CF4005747EA063728F4E64646EA84
:102660000E265C60DE614E6809691E641F62DF69C8
:1026700047F40067DF61DF6927F48067DF613DE0D1
:10268000036840F200481A6A43F4806522F01002A1
:102690001A621C6A1A46D3F804C052F818EF8F6801
:1026A00024F02004C4F20108454544EA071407D188
:1026B000CF686FF0400624F0C00406EA07163443E2
:1026C000D1F80090454506D1D1E905562CF4406774
:1026D0002E4347EA860C2EF4E64747EA0927C3F85B
:1026E00004C09F614F6809699F631C629F6947F43A
:1026F00000679F619F6927F480679F6109021368E3
:10270000194311600021BDE8F043002280F83C200D
:10271000084670470121002280F83C200846704797
:10272000002804BF0120704710B5044690F83D0012
:1027300028B9002084F83C00204600F01FF8022051
:1027400084F83D002068211D01F07AF9012084F809
:10275000460084F83E0084F83F0084F8400084F886
:10276000410084F8420084F8430084F8440084F86F
:10277000450084F83D00002010BD000070470000B7
:10278000704700000068B0F1804F18BF704740F2FA
:10279000A610C2F20000018801318AB2022A01802B
:1027A00004D10021018000F0ABBD00BF70470000E4
:1027B000704700007047000070470000B0B582B05D
:1027C00001680A68CC684B6902F02F05202D04F0DF
:1027D000200505D125B102B0BDE8B04001F0EABA4C
:1027E0005FEA027C1EBF03F0010E04F4907313EB4A
:1027F0000E0341D1036BD50618D5012B16D114F069
:10280000100313D0002201920A6801924A680192D3
:10281000019A496949064BD4818DC28DC38D002B25
:1028200018BF914240F0F28102B0B0BD13062DD521
:1028300014F080032AD090F83D20212AF4D1826838
:10284000B2F5805F03D10269002A00F06382026A58
:10285000531C036212784A60C28C013A1304C2848A
:10286000E2D1C86820F08000C860C86840F040002D
:10287000C86002B0B0BD00BFD30718BF14F48073A6
:1028800040F0CE80530700F1D180D6E05206CBD580
:1028900014F04002C8D0CA6822F04002CA60202169
:1028A00080F83D1002B0BDE8B04000F023BD00BF8D
:1028B000826B11684B689DB2002DB5D0818D8D4221
:1028C000B2D2C385D269B2F5807F00F0A1800168E1
:1028D00051E8031F026821F4807142E80313DBB161
:1028E000016851E8031F026821F4807142E8031374
:1028F00093B1016851E8031F026821F4807142E836
:1029000003134BB1016851E8031F026821F4807181
:1029100042E80313002BDAD1016851E8051F026871
:1029200021F0010142E80513BBB3016851E8051F1E
:10293000026821F0010142E8051373B3016851E810
:10294000051F026821F0010142E805132BB301685D
:1029500051E8051F026821F0010142E80513002B30
:10296000DAD11AE0016851E8051F026821F0400140
:1029700042E80513DBB1016851E8051F026821F048
:10298000400142E8051393B1016851E8051F026850
:1029900021F0400142E805134BB1016851E8051FE1
:1029A000026821F0400142E80513002BDAD1202112
:1029B00080F83E1000210163016851E8031F02689E
:1029C00021F0100142E80313DBB1016851E8031F55
:1029D000026821F0100142E8031393B1016851E845
:1029E000031F026821F0100142E803134BB1016894
:1029F00051E8031F026821F0100142E80313002B85
:102A0000DAD1816B04460846FEF750FAA18D2046C4
:102A1000C28D891A89B202B0BDE8B040FFF7CABEC4
:102A2000036C43F001030364530706D5BEF1000FA6
:102A300003D0036C43F002030364930706D5BEF191
:102A4000000F03D0036C43F004030364BCF1000FD8
:102A500006D55EEA050303D0036C43F00803036464
:102A6000036C002B3FF4E0AE920605D525B1044679
:102A700001F0A0F9216820464969026C01F040018B
:102A800002F00802891800F0B98000BF016851E81F
:102A9000031F026821F4907142E80313BBB301687D
:102AA00051E8031F026821F4907142E8031373B3E5
:102AB000016851E8031F026821F4907142E8031392
:102AC0002BB3016851E8031F026821F4907142E8BA
:102AD0000313002BDAD11AE0016851E8051F0268E0
:102AE00021F0010142E80513DBB1016851E8051F3F
:102AF000026821F0010142E8051393B1016851E831
:102B0000051F026821F0010142E805134BB101687D
:102B100051E8051F026821F0010142E80513002B6E
:102B2000DAD1016B012924D1016851E8031F026841
:102B300021F0100142E80313DBB1016851E8031FE3
:102B4000026821F0100142E8031393B1016851E8D3
:102B5000031F026821F0100142E803134BB1016822
:102B600051E8031F026821F0100142E80313002B13
:102B7000DAD1202180F83E10002101630168496903
:102B8000490640F1C180016851E8051F026821F043
:102B9000400142E80513DBB1016851E8051F0268F6
:102BA00021F0400142E8051393B1016851E8051F87
:102BB000026821F0400142E805134BB1016851E879
:102BC000051F026821F0400142E80513002BDAD10D
:102BD000816B002900F0988043F67532C0F6000240
:102BE000044608460A65FEF7A9F900283FF41CAE22
:102BF000A06B016D02B0BDE8B04008470446FFF786
:102C0000DBFD0020206402B0B0BD00BF891A00BF08
:102C1000026852E8032F036822F4907243E8032508
:102C2000BDB3026852E8032F036822F4907243E8B0
:102C3000032575B3026852E8032F036822F49072EB
:102C400043E803252DB3026852E8032F036822F4FA
:102C5000907243E80325002DDAD11AE0026852E8A9
:102C6000052F036822F0010243E80525DDB1026863
:102C700052E8052F036822F0010243E8052595B1CB
:102C8000026852E8052F036822F0010243E8052597
:102C90004DB1026852E8052F036822F0010243E8B3
:102CA0000525002DDAD1202280F83E200022026383
:102CB000026852E8032F036822F0100243E803255C
:102CC000DDB1026852E8032F036822F0100243E8E6
:102CD000032595B1026852E8032F036822F0100221
:102CE00043E803254DB1026852E8032F036822F040
:102CF000100243E80325002DDAD189B202B0BDE805
:102D0000B040FFF757BD00BF02B0BDE8B040FFF7CD
:102D100053BD00BF026A32F8023B6FF35F234B6082
:102D2000026299E5002804BF0120704710B50446EF
:102D300090F83D0028B9002084F83C00204600F0BF
:102D400021F8242084F83D002068C16821F4005156
:102D5000C160204601F0AEF82068016921F490417D
:102D60000161416921F02A014161C16841F40051CA
:102D7000C16000202021206484F83D1084F83E10BA
:102D800010BD000070B586B0016844F20042C4F284
:102D9000000200269142CDE90466CDE90266019663
:102DA00066D041F20000C4F20100814230D044F606
:102DB0000040C4F20000814240F0A880002043F6A9
:102DC00030010090C4F202010A6942F400220A6153
:102DD0000A6902F400220092009A00900A6842F008
:102DE00001020A600968022201F0010100910099C4
:102DF000CDE90220082003210590002001910491D3
:102E0000C4F2020001A9FEF7A9FA06B070BD00BF26
:102E1000002043F630010090C4F202014A6942F0FA
:102E200010024A614A6902F010020092009A009072
:102E30000A6842F001020A60096801F0010100918C
:102E400000994FF4C06101910221CDE902100320E5
:102E50000490072005900020C4F2020001A9FEF7AB
:102E60007DFA252000210022FEF7D0FB25204BE033
:102E7000054643F630000096C4F20200016941F4B1
:102E800000310161016901F400310091009900965F
:102E9000016841F001010160006801A900F0010032
:102EA000009000980C2001900220CDE9020603203A
:102EB0000490072005900020C4F20200FEF74EFAAD
:102EC00040F2AC1446F2A000C2F20004C4F20200C8
:102ED0004FF0006140224FF4806384E847002046B1
:102EE000C4E90436C4E90666C4E90866FEF71AF9BF
:102EF000002818BFFDF7D4FF2620002100226C63B4
:102F0000A563FEF783FB2620FEF76EFB06B070BDBF
:102F100090F83E30202B0BD100294FF0010318BF51
:102F2000002A01D11846704790F83C30012B03D19C
:102F300002231846704700BF0023036381622221E9
:102F40008285C285036480F83E100269016880F8BA
:102F50003C301AB1C86840F48070C860486940F0DD
:102F600001004861C86840F02000C86018467047FA
:102F7000016841F20002C4F20102914218BF704799
:102F8000B0B540F2A814C2F20004B4F9001005462E
:102F9000084600F061FC284621460122BDE8B04009
:102FA000FFF7B6BF2DE9F04381B0044690F83D002D
:102FB00020280DD10F4600294FF0010018BF002A2C
:102FC00002D101B0BDE8F08394F83C00012803D1A0
:102FD000022001B0BDE8F083012084F83C0000200D
:102FE000206421201D4684F83D001646FEF78CFA29
:102FF000A684E684A1680646B1F5805F03D1206906
:10300000002800F00D81B8460027002084F83C001D
:10301000E18C2068002900F08F8005F101090CE0A7
:10302000B8F1000F28D018F8011B4160E18C01397C
:10303000E184E18C002900F07F8001680906EFD46B
:10304000B9F1000F0AD0FDB1FEF75EFA801BA8426D
:103050001AD8206801680906F6D5E1E70168090673
:10306000DED4016809065CBF01685FEA0161D7D45C
:1030700001680906F2D5D3E737F8021B4FF00008C4
:103080006FF35F21D1E700BF206850E8030F21688C
:1030900020F4D07041E80302BAB3206850E8030F6F
:1030A000216820F4D07041E8030272B3206850E830
:1030B000030F216820F4D07041E803022AB320688E
:1030C00050E8030F216820F4D07041E80302002A81
:1030D000DAD11AE0206850E8050F216820F00100DD
:1030E00041E80502DAB1206850E8050F216820F0B8
:1030F000010041E8050292B1206850E8050F2168FF
:1031000020F0010041E805024AB1206850E8050FAF
:10311000216820F0010041E80502002ADAD12020D0
:1031200084F83D0084F83E00002084F83C00032031
:1031300001B0BDE8F08300BF016849060FD4F5B1C6
:10314000691C17D10168490609D4016849065CBFAA
:1031500001685FEA416102D401684906F2D5202086
:1031600084F83D00002001B0BDE8F08320680068CD
:103170004006F4D4FEF7C8F9801BA842F6D92068AF
:1031800050E8030F216820F4D07041E80302E2B355
:10319000206850E8030F216820F4D07041E8030252
:1031A0009AB3206850E8030F216820F4D07041E8FA
:1031B000030252B3206850E8030F216820F4D07056
:1031C00041E80302002ADAD11FE000BF206850E87E
:1031D000050F216820F0010041E80502002A9ED079
:1031E000206850E8050F216820F0010041E8050241
:1031F000002A94D0206850E8050F216820F00100D3
:1032000041E80502002A3FF48AAF206850E8050F24
:10321000216820F0010041E80502002AD6D17EE7AE
:103220004FF00008F1E60000B0B590F83D40202CCA
:103230000CD1134600294FF0010218BF002B01D119
:103240001046B0BD90F83C20012A01D10220B0BD4B
:10325000012280F83C200025212201628384C3845E
:10326000056480F83D20D0F834C043F6FD4E43F6A7
:10327000AD54C0F6000EC0F600040268CCE90FE4BD
:1032800043F68134C0F60004CCE913450432044609
:103290006046FDF7F9FF216820466FF040020A60A2
:1032A00084F83C50016851E8051F026841F0800134
:1032B00042E80513DBB1016851E8051F026841F0DF
:1032C000800142E8051393B1016851E8051F0268C7
:1032D00041F0800142E805134BB1016851E8051F38
:1032E000026841F0800142E80513002BDAD1002288
:1032F0001046B0BD7047000070470000FEE70000B8
:1033000010B582B04FF0FF40009040F27410C2F24E
:10331000000040F275110078C2F20001097840F215
:1033200028348DF804000020C2F200048DF8051046
:10333000ADF8060001A920460422FFF775FF694693
:1033400020460422FFF770FF02B010BD80B582B0A6
:103350000020019043F63000C4F202000168002210
:1033600041F4001101600068002100F40010019098
:1033700001981120FEF74AF9112002B0BDE8804003
:10338000FEF732B970B586B0002643F630000596D8
:10339000CDE90366CDE901660096C4F2020001683A
:1033A00041F2004441F0200101600168C4F20204CE
:1033B00001F02001009100990096016801AD41F0F3
:1033C00080010160016801F0800100910099009680
:1033D000016841F001010160016801F00101009103
:1033E00000990096016841F01001016000682946CB
:1033F00000F0100000900098802001904FF404101D
:10340000CDE902062046FDF7A9FF4FF48070CDE913
:1034100001060120039020462946FDF79FFF172053
:1034200000210022FEF7F2F81720FEF7DDF806B0C3
:1034300070BD000070B59CB0002540F20C20C4F2B5
:1034400001050021C2F200004FF6FF721591CDE98F
:1034500013111191CDE90F11CDE90D11CDE90B112A
:10346000CDE90911CDE90711CDE90511CDE9031128
:10347000CDE90111C0E90052C0E90212C0E904110E
:103480008161FEF783FC002818BFFDF709FD4FF4AA
:103490008050129040F20C20C2F2000012A9FEF7F8
:1034A00099FD002818BFFDF7FBFC40F20C20C2F28A
:1034B0000000FEF7F5FF002818BFFDF7F1FC40F211
:1034C0000C200024C2F2000010A9CDE91044FEF740
:1034D000FFFB002818BFFDF7E3FC40F20C20C2F20E
:1034E000000009A900220F94CDE90D44CDE90B4459
:1034F000CDE90944FEF7F8FE002818BFFDF7D0FC1F
:1035000040F20C20C2F2000009A90422FEF7ECFEF2
:10351000002818BFFDF7C4FC40F20C244FF4005003
:10352000C2F200040026069001A920460596CDE9C6
:103530000366CDE901660896FEF7A4FB002818BFD4
:10354000FDF7AEFC206840F20041C4F20001884261
:103550001B96CDE91966CDE9176617D0A84232D17E
:103560000020169043F63000C4F2020001684FF4C8
:10357000206241F0100101600068012100F010009C
:103580001690169805F5883013E000BF00201690BD
:1035900043F63000C4F202000168C02241F001018C
:1035A00001600068022100F001001690169805F5F0
:1035B000803017920222189200221B9117A9CDE9A0
:1035C0001922FDF7CBFE1CB070BD000080B586B09F
:1035D00040F2542048F29F6C0021C2F20000C0F279
:1035E000010C0591CDE90311CDE900114FF08042A6
:1035F0005323C0E9021C01618021C0E900238161DD
:10360000FEF7C4FB002818BFFDF74AFC4FF48050BA
:10361000029040F25420C2F2000002A9FEF7DAFC48
:10362000002818BFFDF73CFC40F25420C2F2000015
:103630006946FEF74DFB002818BFFDF731FC06B0C8
:1036400080BD0000B0B594B040F29C2040F200452F
:103650000021C2F2000044F61F63C4F200050D9180
:10366000CDE90B110991CDE90711CDE90511CDE99E
:103670000311CDE901115322C0E902130161802138
:10368000C0E900528161FEF781FB002818BFFDF7F9
:1036900007FC4FF480500A9040F29C20C2F20000D8
:1036A0000AA9FEF797FC002818BFFDF7F9FB40F2C6
:1036B0009C20C2F20000FFF733F8002818BFFDF786
:1036C000EFFB40F29C200024C2F2000008A9CDE9E3
:1036D0000844FEF7FDFA002818BFFDF7E1FB602063
:1036E000CDE9010440F29C20C2F2000001A90022B1
:1036F00003940594FEF704FF002818BFFDF7D0FBE4
:1037000040F29C24C2F2000401A920460422FEF7E4
:10371000F7FE002818BFFDF7C3FB21680020A9426F
:103720001390CDE9110010900F9019D00020C4F231
:103730000100814230D100200E9043F63000C4F2E7
:10374000020001684FF4206241F01001016000683E
:10375000012100F010000E900E9805F5033011E0E5
:103760000E9043F63000C4F202000168C02241F01E
:10377000010101600068022100F001000E900E9826
:1037800005F5FE300F9202221092002213910FA92C
:10379000CDE91122FDF7E2FD14B0B0BD80B540F2D5
:1037A0006C3044F60041C2F20000C4F20001002374
:1037B0004FF00C0C4FF4E13280E80E00C0E9033307
:1037C000C0E905C3C361FFF7ADFA002808BF80BD9B
:1037D000BDE88040FDF764BB80B540F2E42041F2D3
:1037E0000001C2F20000C4F2010100234FF00C0CF2
:1037F0004FF4E13280E80E00C0E90333C0E905C3AD
:10380000C361FFF78FFA002808BF80BDBDE8804084
:10381000FDF746BB80B540F2283044F20041C2F2C9
:103820000000C4F2000100234FF00C0C4FF4E13211
:1038300080E80E00C0E90333C0E905C3C361FFF7A8
:1038400071FA002808BF80BDBDE88040FDF728BBA5
:10385000FEE70000FEE70000B0B540F27415C2F2CA
:103860000005697A2C2808BF002937D0122808BF24
:10387000012947D0032959D0022961D12A7A5B282E
:1038800002F1010105EB42022972D08303D0C8B2D4
:103890000A2838BFB0BDC9B205EB41020320938AA4
:1038A0006872907D44F21014D9B2AB70137E927E90
:1038B000C0F60004E87020462B716A71FCF76EFDBB
:1038C000E9782046FCF76AFD29792046FCF766FD79
:1038D000697922A0BDE8B040FCF760BD297A0120DB
:1038E0006872481C287205EB41032C2541F2004008
:1038F000C4F202004FF400710122DD83BDE8B04044
:10390000FDF7FCBD41F20040C4F202004FF400712B
:103910000022FDF7F3FD297A02206872481C287204
:1039200005EB41001221C183B0BD00BF287A05EB31
:103930004000808B5B2803D100202881B0BD00BFF0
:1039400000202881C5F81E00C5F82200C5F8260011
:10395000C5F82A00C5F82E00B0BD00BF25640D0AC9
:10396000000000007047000070470000FDF7D2BD66
:1039700070B592B006AC20463021FCF78BFD0025D7
:1039800043F640000595CDE90355CDE90155009575
:10399000C4F202000168022641F080510160006813
:1039A00000F080500090009847F200000095C4F2AB
:1039B0000000016841F480410160006800F480402B
:1039C000009000980120099010200A9008200E9085
:1039D000A820CDE90F060420119020460696CDE9D7
:1039E0000C65FDF75FFF28B1EFF3108072B600BFE2
:1039F000FEE700BF0F20CDE901064FF4A050049070
:103A00004FF48050059001A805210395FDF73AFE7B
:103A100020B1EFF3108072B6FEE700BF12B070BDA8
:103A20004EF68850CEF20000016841F4700101604A
:103A30007047000040F25420C2F20000FEF79CBB29
:103A400010B540F6FF3E0368C4F2000E40F2004C91
:103A50007045C4F2010C25DCB0F1804F2FD040F24C
:103A60000042C4F20002904229D040F60002C4F2A3
:103A70000002904223D041F6FF72C4F2000290424D
:103A800027DC70453ADCB0F1804F5BD040F2004259
:103A9000C4F20002904255D040F60002C4F2000287
:103AA0004EE000BF40F60042C4F20002904206D051
:103AB000604504D00022C4F201029042DBD14A6882
:103AC00023F07003134341F6FF72C4F200029042E8
:103AD000D7DD43F6FF72C4F20102904220DC42F2CD
:103AE0000002C4F2000290422CD00022C4F2010273
:103AF000904227D0604525D028E000BF40F6004224
:103B0000C4F2000290421DD041F60002C4F200024D
:103B1000904217D041F60042C4F2000210E000BF0C
:103B200044F20002C4F2010290420BD044F60002BB
:103B3000C4F20102904205D044F20042C4F20102F4
:103B4000904203D1CA6823F44073134323F08002E8
:103B50004B69D1F800E08C681A430260C46240F4FB
:103B60008062C0F828E0624504BF09690163012151
:103B7000416110BD806B0021C185C184FEF71CBE70
:103B8000806B01684A6990F83D30212B2DD112F0ED
:103B900080022AD00021C184016851E8031F026815
:103BA00021F0C00142E80313DBB1016851E8031FB3
:103BB000026821F0C00142E8031393B1016851E8A3
:103BC000031F026821F0C00142E803134BB10168F2
:103BD00051E8031F026821F0C00142E80313002BE3
:103BE000DAD1202180F83D100168496990F83E2023
:103BF000222A40F07D8011F0400179D00021C1855A
:103C0000016851E8031F026821F4907142E8031330
:103C1000BBB3016851E8031F026821F4907142E8C8
:103C2000031373B3016851E8031F026821F4907114
:103C300042E803132BB3016851E8031F026821F423
:103C4000907142E80313002BDAD11AE0016851E8C1
:103C5000051F026821F0010142E80513DBB101688C
:103C600051E8051F026821F0010142E8051393B1F4
:103C7000016851E8051F026821F0010142E80513BF
:103C80004BB1016851E8051F026821F0010142E8CB
:103C90000513002BDAD1016B012924D1016851E809
:103CA000031F026821F0100142E80313DBB1016831
:103CB00051E8031F026821F0100142E8031393B199
:103CC000016851E8031F026821F0100142E8031364
:103CD0004BB1016851E8031F026821F0100142E86E
:103CE0000313002BDAD1202180F83E10002101635C
:103CF000016C41F010010164FEF75EBD0168806B4C
:103D00000968C90548BFFFF7F5BA0021C18400BFA3
:103D1000016851E8051F026821F0800142E805139F
:103D200083B3016851E8051F026821F0800142E871
:103D300005133BB3016851E8051F026821F08001BB
:103D400042E80513F3B1016851E8051F026821F04C
:103D5000800142E80513002BDAD113E0016851E835
:103D6000031F026841F0400142E80313002B08BF23
:103D70007047016851E8031F026841F0400142E8C2
:103D8000031393B1016851E8031F026841F0400139
:103D900042E803134BB1016851E8031F026841F088
:103DA000400142E80313002BD8D17047806BFFF726
:103DB000A3BA000081B090F83E10222921D1836877
:103DC0000246B3F5805F09D152F8281F52F8183C1B
:103DD000002B63D003685B680AE000BF52F8281F1D
:103DE00013B90369002BF5D003685B6803F07F0308
:103DF0000B70116801311160C18D01390A04C18550
:103E000002D001B0704700BF0168CA6822F02002EA
:103E1000CA60CA6822F48072CA604A6922F001024C
:103E20004A61202180F83E10016B01293ED100211A
:103E3000016300BF016851E8031F026821F010010F
:103E400042E80313DBB1016851E8031F026821F067
:103E5000100142E8031393B1016851E8031F02689F
:103E600021F0100142E803134BB1016851E8031F30
:103E7000026821F0100142E80313002BDAD1016837
:103E80000A68D20606D5002200920A6800924968A4
:103E900000910099818D01B0FEF78CBC02685268D8
:103EA0006FF35F2221F8022B8162A5E701B0FFF7D3
:103EB0005FB80000B0B50446006804F108030ECBFB
:103EC0000569194325F440552A4302616269E36993
:103ED0001143C268194349F20C639A431143C1600C
:103EE0004169A26921F4407141F20043114340F459
:103EF0008062C4F201039A42416103D1FDF788FC5C
:103F000002E000BFFDF770FCE1694FF69C75636845
:103F10001922C0F6FF75B1F5004FA0FB02011FD1B9
:103F20005A00DB0FFCF7C2F948F21F51C5F2EB1142
:103F3000A0FB01235A0905F1805302FB0300322341
:103F400003EBC000A0FB01014FF4F87000EA111070
:103F500000EB0210C1F34211084421688860B0BD33
:103F60009A009B0FFCF7A2F948F21F51C5F2EB1122
:103F7000A0FB01235A0902FB0500322303EB0010CA
:103F8000A0FB0101F02000EA511000EB0210C1F388
:103F90004311084421688860B0BD000040F2E4206D
:103FA000C2F20000FEF70ABC40F22830C2F2000064
:103FB000FEF704BCFEE7000080B582B0019040F23D
:103FC000E420C2F2000001A901224FF0FF33FEF706
:103FD000E9FF019802B080BDFDF7AAFAFFF7C8FC1F
:103FE000FFF7D0F9FFF726FAFFF7D8FBFFF7AEF996
:103FF000FFF7F2FBFFF70EFCFFF7E8FAFFF722FBF3
:1040000040F20C20C2F20000FDF73CFF40F25420C9
:10401000C2F20000FDF788FF40F2E42040F2A81150
:10402000C2F20000C2F200010122FEF771FF00BFE0
:10403000FEE700005A2803DD40F6C41018E000BF78
:104040004BF6207110F15A0FD8BF6FF05900C0F233
:1040500002014FF4FA6200FB021046F61741800895
:10406000C1F2C161A0FB01014FF4FA7000EB9100B5
:1040700040F29C21C2F20001096888637047000089
:104080005A2803DD40F6C41018E000BF4BF620713B
:1040900010F15A0FD8BF6FF05900C0F202014FF46F
:1040A000FA6200FB021046F617418008C1F2C161B6
:1040B000A0FB01014FF4FA7000EB910040F29C214B
:1040C000C2F20001096848637047F1EE100A4FF62A
:1040D000FF71C0F2C03120EA010040F04070E1EE13
:1040E000100A70473A7474003A7474003A74740099
:1040F0000000000000000000010203040607080998
:10410000000000000102030400061016000610164D
:1041100025640D2020200000384100080000002008
:1041200018000000EC0100085041000818000020B1
:10413000A00900000C0200080000000000000000C0
:104140000000000001000000100000000024F40046
:040000050800018965
:00000001FF
